:020000040800F2
:1000000070070020F12400088D0200088F0200080C
:1000100093020008970200089B02000800000000FD
:100020000000000000000000000000009F02000827
:10003000A102000800000000A3020008A5020008B9
:100040000B2500080B2500080B2500080B250008D0
:100050000B2500080B2500080B2500080B250008C0
:100060000B2500080B2500080B2500080B250008B0
:100070000B2500080B2500080B2500080B250008A0
:100080000B2500080B2500080B2500080B25000890
:100090000B2500080B2500080B2500080B25000880
:1000A0000B2500080B2500080B2500080B25000870
:1000B0000B250008632600089D2600080B25000874
:1000C0000B2500080B2500080B2500080B25000850
:1000D0000B2500088F2E0008A72E0008E52E00082B
:1000E0000B2500080B2500080B25000800F002F87E
:1000F00000F062F80AA090E8000C82448344AAF160
:100100000107DA4501D100F057F8AFF2090EBAE85D
:100110000F0013F0010F18BFFB1A43F0010318473B
:100120005437000074370000103A24BF78C878C1F3
:10013000FAD8520724BF30C830C144BF04680C60ED
:10014000704700000023002400250026103A28BF35
:1001500078C1FBD8520728BF30C148BF0B60704739
:10016000692902F05D87642902F05A87752902F037
:1001700057876F2902F0EE87782903F0158003680E
:10018000DB0928BF41F08001632903F02A8273292B
:1001900003F02F82E32903F04D82002070471FB542
:1001A00003F0A6FA04000020002103F0F7FA401C37
:1001B00060601FBD10B510BD03F074FA1146FFF763
:1001C000EEFF00F009F803F097FA03B4FFF7F2FF2F
:1001D00003BC02F00BFD0000B2B002F097FC02F08D
:1001E000FFFC02F0A5F94FF4165002F029FD4FF480
:1001F000165002F074FD40F27121072002F0C2F99E
:1002000002F073FA02F055FB2DE00C24432516A0F2
:1002100002F084FE4FF4967002F0B5FC2A462146A7
:10022000684602F083FB06463146684602F00AFE45
:1002300000BF1448008800F040000028F9D01A20C0
:100240001049091D08804FF4FA7002F09CFC02F07E
:1002500039FA0D48006808B9012000E000200A4979
:10026000086002F0A1F9D0E741542B514D5450558C
:10027000423D302C302C302C302C22246470220D46
:100280000A0000000044004080812142704700BF06
:10029000FEE700BFFEE700BFFEE700BFFEE77047D6
:1002A000704770477047000010B500F03DFE012018
:1002B00000F0BFFE00BF212000F079FE0028FAD038
:1002C000102000F099F9022000F082F9002000F0DF
:1002D000D0FE002000F0DFFE4FF4806000F0D2FE80
:1002E0004FF46011002000F0A7FE012000F0B0FEE6
:1002F00000BF392000F05BFE0028FAD0022000F099
:10030000AAFE00BF00F0B0FE0828FBD101211D208D
:1003100000F078FF10BD0CB50020019000906C48F3
:10032000006840F480306A49086000BF684800688F
:1003300000F4003000900198401C0190009818B91A
:100340000198B0F5A06FF1D16148006800F4003069
:1003500010B10120009001E00020009000980128D9
:1003600043D15C48006840F010005A4908600846D4
:10037000006820F0030008600846006840F00200B2
:1003800008605348406852494860084640684860E1
:100390000846406840F4806048600846406820F4A1
:1003A0007C1048600846406840F4E8104860084601
:1003B000006840F08070086000BF4548006800F0A9
:1003C00000700028F9D04248406820F003004049FE
:1003D00048600846406840F00200486000BF3C4862
:1003E000406800F00C000828F9D10CBD10B5FFF7EB
:1003F00092FF10BD10B53648006840F00100344946
:100400000860084640683449084031494860084659
:100410000068324908402E4908600846006820F408
:10042000802008600846406820F4FE0048604FF4D1
:100430001F008860FFF7DAFF4FF00060284908606E
:1004400010BD10B5002100200022214B5B6803F095
:100450000C0121B1042906D0082928D107E0214B3D
:10046000214C236027E01F4B1F4C236023E0184BD7
:100470005B6803F47010164B5B6803F48032022350
:1004800003EB904022B9194B4343174C23600DE016
:100490000F4B5B6803F4003323B1144B4343124CFE
:1004A000236003E00F4B43430F4C236003E00D4BED
:1004B0000D4C236000BF00BF054B5B68C3F3031303
:1004C0000B4CE15C084B1B68CB40074C236010BD14
:1004D00000100240002002400000FFF8FFFFF6FE7F
:1004E00008ED00E000127A000000002000093D0045
:1004F0000400002031490143314A1160704770B552
:10050000002100230F22C47804B32D4C246804F486
:10051000E064C4F5E064210AC1F10403CA404478F0
:1005200004FA03F18478144021430901254C06782C
:10053000A155047804F01F050124AC4005786D1125
:10054000AD0005F1E025C5F8004109E0047804F0AC
:100550001F050124AC401C4D0678761145F8264055
:1005600070BD1A4A0A400243154B1B1F1A607047A0
:1005700039B1134A121D12680243114B1B1D1A6038
:1005800006E00F4A121D126882430D4B1B1D1A60B4
:100590007047042808D14FF0E021096941F00401B7
:1005A0004FF0E022116107E04FF0E021096921F0EE
:1005B00004014FF0E0221161704700000000FA05CD
:1005C0000CED00E000E400E080E100E080FFFF1FB0
:1005D00001460020FE4A106800F038000843106011
:1005E0007047FB49096821F00801F94A116011467A
:1005F0000968014311607047F549096821F010014D
:10060000F34A116011460968014311607047F148CF
:10061000EF494860F04848607047EE48EC49486050
:10062000ED4848607047EA48006940F08000E849BA
:1006300008617047E648006940F08000E4490861BD
:1006400070470420E249C96801F0010109B10120A5
:100650000EE0DF49C96801F0040109B1022007E09A
:10066000DB49C96801F0100109B1032000E0042052
:10067000704700B502460423FFF7E3FF034603E09B
:10068000FFF7DFFF0346521E012B01D1002AF7D1ED
:1006900002B90523184600BD30B5044604254FF4C1
:1006A0003020FFF7E6FF0546042D17D1C848006942
:1006B00040F00200C649086108464461006940F004
:1006C000400008614FF43020FFF7D3FF0546C048D3
:1006D000006941F6FD710840BD490861284630BDFA
:1006E00010B504244FF43020FFF7C3FF0446042C58
:1006F00016D1B748006940F00400B54908610846C2
:10070000006940F0400008614FF43020FFF7B1FF6E
:100710000446AF48006941F6FB710840AC490861E6
:10072000204610BD00B502460423FFF78AFF0346AA
:1007300003E0FFF786FF0346521E012B01D1002A7A
:10074000F7D102B90523184600BD10B504244FF4B3
:100750003020FFF7E7FF0446042C16D19C480069BF
:1007600040F004009A4908610846006940F04000E2
:1007700008614FF43020FFF7D5FF04469448006924
:1007800041F6FB71084092490861204610BD0020E7
:100790008F49C96901F0020109B1012000E0002080
:1007A000704730B5A5250424FFF7F1FF00B10025FF
:1007B0004FF43020FFF75DFF0446042C3AD1854802
:1007C00083498860844888600846006940F02000BA
:1007D00008610846006940F0400008614FF430208D
:1007E000FFF747FF0446042C1BD17948006941F606
:1007F000DF710840764908610846006940F0100042
:10080000086176480580E002FFF733FF0446052CB7
:1008100010D06F48006941F6EF7108406C490861DB
:1008200008E0052C06D06A48006941F6EF710840DF
:1008300067490861204630BD78B506460C46042558
:1008400000200090E802FFF714FF0546042D24D194
:100850005F48006940F001005D4908613480E802AA
:10086000FFF707FF0546042D10D1B01C0090200CA7
:1008700000990880E802FFF7FCFE0546544800692D
:1008800041F6FE7108405249086106E0504800698F
:1008900041F6FE7108404E490861284678BD70B5A2
:1008A00004460D460426F002FFF7E3FE0646042E3A
:1008B00011D14748006940F0010045490861258091
:1008C000F002FFF7D6FE06464148006941F6FE7188
:1008D00008403F490861304670BD70B505460E4678
:1008E0000424E002FFF7C5FE0446042C17D1394862
:1008F00037498860384888600846006940F0100031
:1009000008612E80E002FFF7B4FE0446052C06D0F5
:100910002F48006941F6EF7108402D4908612046D3
:1009200070BD2DE9F04304464FF6FF763746B046DA
:10093000B1460425E443E6B2C4F30727C4F30748ED
:100940004FEA1469E802FFF794FE0546042D49D1E9
:1009500020481F498860204888600846006940F0A8
:1009600010000861FF2E06D01C4808300680E802FF
:10097000FFF77FFE0546042D08D1FF2F06D017484C
:100980000A300780E802FFF774FE0546042D0AD1FD
:10099000B8F1FF0F07D011480C30A0F80080E80232
:1009A000FFF767FE0546042D0AD1B9F1FF0F07D006
:1009B0000A480E30A0F80090E802FFF75AFE0546FC
:1009C000052D0FD00248006941F6EF71084007E09D
:1009D0000020024023016745AB89EFCD00F8FF1FDF
:1009E000664908612846BDE8F08330B50546042411
:1009F0004FF43020FFF73DFE0446042C41D16048FF
:100A00005E4988605F4888600846006940F02000C1
:100A100008610846006940F0400008614FF430204A
:100A2000FFF727FE0446042C22D15448006941F602
:100A3000DF710840514908610846006940F0100024
:100A400008611DB100205049088002E0A5204E49F0
:100A500008804FF43020FFF70CFE0446052C10D020
:100A60004648006941F6EF7108404449086108E0D2
:100A7000052C06D04148006941F6DF7108403F4926
:100A80000861204630BDF0B505460E4617460424E1
:100A90003B483A4988603B488860E002FFF7E9FD3F
:100AA0000446042C19D13548006940F01000334940
:100AB000086147F0F800304328433349891C088017
:100AC000E002FFF7D6FD0446052C06D02B4800694E
:100AD00041F6EF710840294908612046F0BD2748DA
:100AE000C069800870472548006A70470020234984
:100AF000096801F0200109B1012000E000207047E1
:100B000029B11E4A126902431C4B1A6104E01B4AB8
:100B100012698243194B1A6170470146002001296E
:100B200008D1164AD26902F001020AB1012008E098
:100B3000002006E0114AD2680A400AB1012000E014
:100B4000002070470D49C860704704200B49C968F0
:100B500001F0010109B101200EE00849C96801F066
:100B6000040109B1022007E00449C96801F010013D
:100B700009B1032000E0042070470000002002407B
:100B800023016745AB89EFCD00F8FF1F10B5044680
:100B9000CC48844208D10121042000F04DFB002103
:100BA000042000F049FB46E0C748844208D10121F7
:100BB000082000F041FB0021082000F03DFB3AE056
:100BC000C248844208D10121102000F035FB0021E9
:100BD000102000F031FB2EE0BD48844208D10121F5
:100BE000202000F029FB0021202000F025FB22E03E
:100BF000B848844208D10121402000F01DFB0021AB
:100C0000402000F019FB16E0B348844208D10121CE
:100C1000802000F011FB0021802000F00DFB0AE095
:100C2000AE48844207D10121801500F005FB002168
:100C3000A01500F001FB10BD10B50121084600F021
:100C4000FBFA0021012000F0F7FA10BD2DE9F04178
:100C5000024600250026002000230024002791F8EA
:100C600003C00CF00F0591F803C00CF0100CBCF1A0
:100C7000000F03D091F802C04CEA050591F800C0BE
:100C8000BCF1000F31D0146800202BE04FF0010CB4
:100C90000CFA00F3B1F800C00CEA03069E4220D122
:100CA00083004FF00F0C0CFA03F7BC4305FA03FC6A
:100CB0004CEA040491F803C0BCF1280F06D14FF0B0
:100CC000010C0CFA00FCC2F814C00AE091F803C051
:100CD000BCF1480F05D14FF0010C0CFA00FCC2F832
:100CE00010C0401C0828D1D31460B1F800C0BCF17A
:100CF000FF0F34DD546800202EE000F1080C4FF0A7
:100D0000010808FA0CF3B1F800C00CEA03069E4291
:100D100021D183004FF00F0C0CFA03F7BC4305FA06
:100D200003FC4CEA040491F803C0BCF1280F05D180
:100D300000F1080C08FA0CF8C2F8148091F803C00E
:100D4000BCF1480F07D100F1080C4FF0010808FA78
:100D50000CF8C2F81080401C0828CED35460BDE8BF
:100D6000F0814FF6FF710180022181700421C17072
:100D700070470246002093680B400BB1012000E051
:100D8000002070470146886880B270470246002004
:100D9000D3680B400BB1012000E0002070470146F2
:100DA000C86880B2704701617047416170470AB1FD
:100DB000016100E041617047C16070474FF48032CB
:100DC0000A43826181618261826982697047024659
:100DD0000020434B18684FF68073184040EA021019
:100DE00008433F4B186070473E49C8617047F0B5F3
:100DF0000A46002300240021002500F00046B6F139
:100E0000004F02D1364EF16901E0354E7168C0F3F2
:100E1000034583B200F44016B6F5401F08D121F017
:100E200070612F4E766826F070662D4F7E6012E05E
:100E300000F48016B6F5801F06D1032606FA05F4E5
:100E4000A14341F0706106E0460D360103FA06F653
:100E5000B14341F0706122B1460D360103FA06F646
:100E6000314300F00046B6F1004F02D11C4EF16153
:100E700001E01B4E7160F0BD30B500228B071C0FE6
:100E80000F2303FA04F2164B08338C1053F8243066
:100E90009343134C08348D1044F8253023468C10AE
:100EA00053F824308C07240F00FA04F423430C4C2D
:100EB00008348D1044F8253030BD0A49DC31086013
:100EC0007047000000080140000C01400010014084
:100ED0000014014000180140001C014000200140A6
:100EE00000000140000020420E49086070470D4993
:100EF000486070470B49886070474AF6AA20094944
:100F0000086070474CF6CC400649086070470146BF
:100F10000020044AD2680A400AB1012000E0002003
:100F20007047000000300040DF48006840F00100DA
:100F3000DD49086008464068DC490840DA494860F5
:100F400008460068DA490840D74908600846006842
:100F500020F4802008600846406820F4FE004860C5
:100F60004FF41F0088607047CF49096821F4803131
:100F7000CD4A11601146096821F480211160B0F555
:100F8000803F03D0B0F5802F0ED106E0C649096836
:100F900041F48031C44A116007E0C349096841F453
:100FA000A021C14A116000E000BF00BF704710B52A
:100FB00001460022002300204A11012A02D1BA4C26
:100FC000236806E0022A02D1B74C236A01E0B64C3E
:100FD000636A01F01F02012494401C400CB10120FF
:100FE00000E0002010BD38B500200090002400254E
:100FF00000BF3120FFF7DBFF05460098401C009042
:101000000098B0F5A06F01D0002DF2D03120FFF78D
:10101000CEFF08B1012400E00024204638BD01467F
:101020000020A14A106820F0F80040EAC1001060DA
:101030007047A04908607047024600209A4B5868E4
:1010400020F47C1042EA01031843974B5860704724
:1010500098490866704701460020934A506820F07E
:1010600003000843506070478F48406800F00C0050
:101070007047014600208C4A506820F0F000084379
:101080005060704701460020874A506820F4E060B5
:1010900008435060704701460020834A506820F49E
:1010A000605040EAC1005060704729B17E4A527AD0
:1010B00002437D4B5A7204E07B4A527A82437A4B58
:1010C0005A7270477B49D83108607047014600204A
:1010D000754A506820F44040084350607047002132
:1010E000714A20321170704A82F82010012802D013
:1010F00004280AD104E001216B4A2032117005E076
:101100000521694A2032117000E000BF00BF70471E
:101110006949086070476449096A0143624A11627B
:101120007047654944390860704730B50021002296
:10113000002400235C4D6D6805F00C0121B10429E9
:1011400005D0082923D105E05C4D056022E05B4D08
:1011500005601FE0544D6D6805F47012524D6D68C6
:1011600005F48034022505EB92421CB9544D5543D9
:1011700005600BE04C4D6D6805F400351DB1504D18
:101180005543056002E04D4D5543056002E04B4D6F
:10119000056000BF00BF444D6D6805F0F00109090E
:1011A000484D6B5C0568DD4045603F4D6D6805F45A
:1011B000E061090A434D6B5C4568DD4085603A4D4E
:1011C0006D6805F46051C90A3E4D6B5C4568DD40B1
:1011D000C560354D6D6805F44041890B3A4D6B5C37
:1011E000C568B5FBF3F5056130BD29B12E4A5269DA
:1011F00002432D4B5A6104E02B4A526982432A4B29
:101200005A61704729B1284A92690243264B9A6174
:1012100004E0254A92698243234B9A61704729B1C1
:10122000214AD2690243204BDA6104E01E4AD269A6
:1012300082431D4BDA61704729B11B4AD2680243D1
:10124000194BDA6004E0184AD2688243164BDA6020
:10125000704729B1144A12690243134B1A6104E022
:10126000114A12698243104B1A6170471249403982
:10127000086070470F49C86470470B49C8717047D0
:101280000948406A40F0807007494862704701464B
:101290000020054A92680A400AB1012000E00020BF
:1012A0007047014988727047001002400000FFF843
:1012B000FFFFF6FE000042428004424200127A0024
:1012C00000093D00140000202400002010B5044651
:1012D000FE48844208D10121C014FFF7ADFF002170
:1012E000E014FFF7A9FFC4E0B4F1804F08D1012159
:1012F0000846FFF7AEFF00210120FFF7AAFFB8E084
:10130000F348844208D101210220FFF7A2FF002107
:101310000220FFF79EFFACE0EE48844208D1012195
:101320000420FFF796FF00210420FFF792FFA0E0C2
:10133000E948844208D101210820FFF78AFF0021F3
:101340000820FFF786FF94E0E448844208D1012199
:101350001020FFF77EFF00211020FFF77AFF88E0C2
:10136000DF48844208D101212020FFF772FF0021CD
:101370002020FFF76EFF7CE0DA48844208D101218B
:101380004014FFF759FF00216014FFF755FF70E08C
:10139000D548844209D10121C804FFF74DFF00213F
:1013A0004FF40020FFF748FF63E0D048844209D1A2
:1013B00001210805FFF740FF00214FF48010FFF7DF
:1013C0003BFF56E0CA48844209D101214805FFF796
:1013D00033FF00214FF40010FFF72EFF49E0C5480E
:1013E000844208D101214020FFF733FF0021402033
:1013F000FFF72FFF3DE0C048844208D10121802043
:10140000FFF727FF00218020FFF723FF31E0BB48D3
:10141000844208D101218015FFF71BFF0021A01590
:10142000FFF717FF25E0B648844209D101210804DF
:10143000FFF702FF00214FF48030FFF7FDFE18E0B8
:10144000B048844209D101214804FFF7F5FE00218C
:101450004FF40030FFF7F0FE0BE0AB48844208D1B8
:1014600001218804FFF7E8FE00214FF48020FFF7F8
:10147000E3FE10BD00220288944B98420ED0994B97
:1014800098420BD0B0F1804F08D0914B984205D0D4
:10149000904B984202D0904B984204D14FF68F73F4
:1014A0001A404B881A438D4B984207D08C4B984278
:1014B00004D04FF6FF431A40CB881A4302808B8832
:1014C00083850B880385814B98420BD0854B9842CE
:1014D00008D08B4B984205D08A4B984202D08A4B59
:1014E000984201D10B7A038601238382704770B53D
:1014F000002400220023058C4FF6FE76354005843B
:10150000028C8388048B4FF68F752C40B51E2C40BF
:101510000D882C43751E2A400D892A434D882A4385
:101520006A4DA8420BD06F4DA84208D0744DA84216
:1015300005D0744DA84202D0734DA84213D14FF686
:10154000F7752A404D892A434FF6FB752A408D884E
:101550002A434FF6FF652B404FF6FF552B408D89F0
:101560002B43CD892B4383800483CD8885860284D9
:1015700070BD70B5002400220023058C4FF6EF7675
:1015800035400584028C8388048B48F6FF752C4017
:101590004FF6FF452C400D884FF6FF7606EA0525ED
:1015A0002C434FF6DF752A400D8906EA05152A43BC
:1015B0004D8806EA05152A43444DA84202D0494DFC
:1015C000A8421DD14FF67F752A404D894FF6FF7610
:1015D00006EA05152A434FF6BF752A408D8806EAAC
:1015E00005152A434FF6FF352B404FF2FF752B4070
:1015F0008D8906EA85052B43CD8906EA85052B43AF
:1016000083800483CD880587028470BD70B5002473
:1016100000220023058C4FF6FF6635400584028CBE
:101620008388848B4FF68F752C404FF6FC752C40C9
:101630000D882C434FF6FF552A400D894FF6FF7653
:1016400006EA05252A434D8806EA05252A431F4D4B
:10165000A84202D0234DA8421DD14FF2FF752A4067
:101660004D894FF6FF7606EA05252A434FF6FF35EA
:101670002A408D8806EA05252A434EF6FF752B4041
:101680004DF6FF752B408D8906EA05152B43CD8954
:1016900006EA05152B4383808483CD8885870284E1
:1016A00070BD70B5002200230024058C4EF6FF7635
:1016B00035400584038C8488828B48F6FF752A4068
:1016C0004FF6FF452A400D8820E00000002C014025
:1016D0000004004000080040000C004000100040E2
:1016E0000014004000340140004C01400050014013
:1016F0000054014000180040001C00400020004041
:101700000040014000440140004801404FF6FF7690
:1017100006EA05252A434DF6FF752B400D8906EA9A
:1017200005352B434D8806EA05352B43FA4DA84273
:1017300002D0FA4DA84208D14BF6FF752C408D8996
:101740004FF6FF7606EA85152C4384808283CD8888
:10175000A0F84050038470BD828B4FF2FF331A40D3
:101760008283828B4FF6FF7303EA01231A4382833D
:101770007047F0B50C461546002200210026078C64
:101780004EF6FF7C07EA0C070784828B018C4FF62C
:10179000FF7707EA043640F6FF473A404FF6FF77F7
:1017A00007EA05273A434FF6FF7707EA03373A433C
:1017B000D94FB8420ED0D94FB8420BD0B0F1804FBC
:1017C00008D0D74FB84205D0D64FB84202D0D64F36
:1017D000B84206D14DF6FF77394046F48057394379
:1017E00005E047F6FF57394044F480573943828378
:1017F0000184F0BD828B4FF6F3731A408283828B93
:101800000A4382837047F0B50C461546002200213A
:101810000026078C4FF6FF6C07EA0C070784828BC3
:10182000018C4FF6FF7707EA04264FF60C773A4013
:101830004FF6FF7707EA03172F433A43B64FB842F4
:101840000ED0B64FB8420BD0B0F1804F08D0B44F95
:10185000B84205D0B34FB84202D0B34FB84206D118
:101860004FF6FF57394046F48077394305E04FF291
:10187000FF57394044F48077394382830184F0BDB7
:10188000028B4FF2FF331A400283028B4FF6FF7335
:1018900003EA01231A4302837047F0B50C4615464C
:1018A000002200210026078C4FF6EF7C07EA0C0788
:1018B0000784028B018C4FF6FF7707EA041640F687
:1018C000FF473A404FF6FF7707EA03373A434FF6B0
:1018D000FF7707EA05273A438F4FB8420ED08F4F64
:1018E000B8420BD0B0F1804F08D08D4FB84205D030
:1018F0008C4FB84202D08C4FB84206D14FF6DF77FA
:10190000394046F01007394305E04FF65F7739401C
:1019100044F01007394302830184F0BD028B4FF677
:10192000F3731A400283028B0A4302837047F0B5B7
:101930000C46154600220021068C4FF6FE773E40ED
:101940000684028B018C4FF60C7632407E1C06EA30
:1019500003162E433243704EB0420ED06F4EB0424B
:101960000BD0B0F1804F08D06D4EB04205D06D4E17
:10197000B04202D06C4EB04206D14FF6FD763140F7
:1019800044F00106314305E04FF6F576314044F06E
:101990000106314302830184F0BD70B505460C4653
:1019A0005D4885420ED05D4885420BD0B5F1804F31
:1019B00008D05B48854205D05A48854202D05A4833
:1019C000854200D100E000BF208850B92389A28859
:1019D00061882846FFF7ABFFE1882846FFF79EFFA6
:1019E00025E0208804280AD12389A2886188284616
:1019F000FFF753FFE1882846FFF742FF17E02088F2
:101A000008280AD12389A28861882846FFF7FBFEAF
:101A1000E1882846FFF7EEFE09E02389A288618865
:101A20002846FFF7A6FEE1882846FFF795FE70BD21
:101A30002DE9F04105460C4600260127608808B9CB
:101A4000022600E00026A088012801D1022700E03C
:101A500001272088A0B92389A28861882846FFF73A
:101A600066FFE1882846FFF759FF23893A46314649
:101A70002846FFF712FFE1882846FFF701FF13E031
:101A80002389A28861882846FFF707FFE188284656
:101A9000FFF7F6FE23893A4631462846FFF747FF0F
:101AA000E1882846FFF73AFFBDE8F0810A884B88B5
:101AB0001A438B881A43CB881A430B891A434B89E4
:101AC0001A438B891A43A0F8442070474FF6FF71E0
:101AD000818000210180C180418001727047002116
:101AE000018041808180C180018141818181C181EA
:101AF0007047002101804180012181800021C18047
:101B0000018170470021018041808180C180018175
:101B10004181818170470000002C01400034014068
:101B20000004004000080040000C004021B1028881
:101B300042F00102028004E002884FF6FE731A4070
:101B40000280704731B1B0F8442042F40042A0F85E
:101B5000442005E0B0F84420C2F30E02A0F844206F
:101B600070471AB183890B43838102E083898B43D9
:101B7000838170478182704741EA0203A0F84830B0
:101B800070471AB183890B43838102E083898B43B9
:101B90008381704701894FF6F872114001817047C7
:101BA0000A46002101894FF68F73194011430181C4
:101BB000704730B504460D4629462046FFF7F0FF32
:101BC000208940F00700208130BD2DE9F041044616
:101BD0000D4616461F46602D06D13B460122314672
:101BE0002046FFF75AFE05E03B46012231462046DB
:101BF000FFF79DFE29462046FFF7D2FF208940F0DF
:101C000007002081BDE8F08130B50C460021018934
:101C1000C9B24FF6FF7505EA03251543254329434D
:101C2000018130BD2DE9F04105460E461746984624
:101C3000002443463A4631462846FFF7E5FF2C8903
:101C40004FF6F870044044F007044FF68F700440DC
:101C500044F070042C81BDE8F081F0B504460D46D7
:101C600016461F463B46324629462046FFF7CCFF24
:101C7000208940F480402081F0BD01858282704738
:101C80000A46002101884FF68F73194011430180E5
:101C90007047F0B50C4615461E4600210022002371
:101CA0000189028B038C4FF6F877394021434FF6B8
:101CB000FC473A4040F201173A434FF6DD773B408C
:101CC0004FF6FF7707EA06172F433B430181028354
:101CD0000384F0BD0A460021018B4FF68F73194033
:101CE0001143018370470A460021018B48F6FF73B8
:101CF00019404FF6FF7303EA02231943018370472B
:101D00000A460021818B4FF68F731940114381835E
:101D100070470A460021818B48F6FF7319404FF641
:101D2000FF7303EA022319438183704721B10288BC
:101D300042F08002028004E002884FF67F731A406E
:101D40000280704721B1828842F00402828004E060
:101D500082884FF6FB731A408280704721B18288D7
:101D600042F00802828004E082884FF6F7731A403E
:101D70008280704721B1828842F00102828004E0B3
:101D800082884FF6FE731A40828070470A4600210F
:101D9000018B4FF6F77319401143018370470A46D0
:101DA0000021018B4FF2FF7319404FF6FF7303EAD6
:101DB00002231943018370470A460021818B4FF6A5
:101DC000F77319401143818370470A460021818BC4
:101DD0004FF2FF7319404FF6FF7303EA02231943D2
:101DE000818370470A460021018B4FF6FB7319402F
:101DF0001143018370470A460021018B4FF6FF33E0
:101E000019404FF6FF7303EA022319430183704719
:101E10000A460021818B4FF6FB73194011438183E1
:101E200070470A460021818B4FF6FF3319404FF669
:101E3000FF7303EA02231943818370470A46002196
:101E4000018B4FF67F7319401143018370470A4697
:101E50000021018BC1F30E014FF6FF7303EA022349
:101E60001943018370470A460021818B4FF67F7327
:101E700019401143818370470A460021818BC1F3C9
:101E80000E014FF6FF7303EA022319438183704763
:101E90000A460021018C4FF6FD731940114301845D
:101EA00070470A460021018C4FF6F7731940114321
:101EB000018470470A460021018C4FF6DF731940F8
:101EC0004FF6FF7303EA02131943018470470A4671
:101ED0000021018C4FF67F7319404FF6FF7303EA20
:101EE00002131943018470470A460021018C4FF602
:101EF000FF5319404FF6FF7303EA0223194301848D
:101F000070470A460021018C4FF2FF7319404FF6CB
:101F1000FF7303EA02231943018470470A46002134
:101F2000018C4DF6FF7319404FF6FF7303EA02333D
:101F300019430184704730B5002301248C40A3B2BB
:101F4000048C9C430484048C02FA01F5ADB22C434A
:101F5000048430BD30B5002304248C40A3B2048C2B
:101F60009C430484048C02FA01F5ADB22C43048432
:101F700030BD70B5034600200024184618300125F6
:101F80008D40ACB21D8CA5431D8409B1082909D12F
:101F900000EB6100056825F07005056005681543D4
:101FA00005600EE00D1FC5F34E052844056825F4B5
:101FB000E045056005684FF6FF7606EA02263543E0
:101FC000056070BD21B1028842F00202028004E087
:101FD00002884FF6FD731A400280704721B10288D3
:101FE00042F00402028004E002884FF6FB731A40BC
:101FF0000280704721B1828842F08002828004E032
:1020000082884FF67F731A408280704702884FF6AD
:10201000F7731A40028002880A4302807047828860
:102020004FF68F731A40828082880A4382807047FD
:1020300002894FF6F8731A40028102890A4302812D
:10204000704702894FF67F731A40028102890A4362
:10205000028170478184704781857047818670470F
:102060000187704781877047A0F840107047028849
:102070004FF6FF431A40028002880A4302807047ED
:102080000146888E70470146088F70470146888F49
:1020900070470146B1F8400070470146888C704790
:1020A0000146088D704702460020138A0B400BB191
:1020B000012000E000207047CA430282704730B51B
:1020C0000246002000230024158A05EA01039589B1
:1020D00005EA010413B10CB1012000E0002030BD7D
:1020E000CA4302827047000010B50446FB48844290
:1020F00009D101218803FFF79FF800214FF48040A8
:10210000FFF79AF832E0F648844209D101214804E9
:10211000FFF79FF800214FF40030FFF79AF825E011
:10212000F048844209D101218804FFF792F8002188
:102130004FF48020FFF78DF818E0EB48844209D176
:102140000121C804FFF785F800214FF40020FFF7B4
:1021500080F80BE0E548844208D101210805FFF72B
:1021600078F800214FF48010FFF773F810BD2DE9C7
:10217000F04786B005460E460024A24600BFA146A1
:102180000027B08900B100BF2F462C8A4CF6FF70A3
:102190000440F08804432C82AC894EF6F3100440CE
:1021A000B08831890843718908430443AC81AC8A03
:1021B0004FF6FF400440B0890443AC8201A8FEF70B
:1021C000B4FFC648874202D1DDF810A001E0DDF877
:1021D0000CA0A88900F4004040B10AEBCA0000EB53
:1021E0000A1031684900B0FBF1F807E00AEBCA00B9
:1021F00000EB0A1031688900B0FBF1F86420B8FBED
:10220000F0F004012009642101FB1089A88900F481
:10221000004040B1322000EBC900B0FBF1F000F00B
:102220000700044308E0322000EB09106421B0FBF2
:10223000F1F000F00F0004432C8106B0BDE8F087F8
:102240004FF41651016000218180C18001810C2171
:10225000418100218181704710B502460020108A1B
:102260004FF2FF0318400B884C8823438C8823438C
:10227000CC8823431843108210BD00210180418087
:102280008180C180704721B1828942F400528281ED
:1022900004E082894DF6FF731A4082817047F0B5E1
:1022A0000346002400260025002040F66A17B942A4
:1022B00000D100BF1846C1F3421401F01F060127E8
:1022C00007FA06F5012C01D10C3004E0022C01D1F3
:1022D000103000E014301AB107682F43076002E0A5
:1022E0000768AF430760F0BD1AB1838A0B4383824E
:1022F00002E0838A8B4383827047028A4FF6F07331
:102300001A400282028A0A430282704782894FF28F
:10231000FF731A40828182890A438281704721B10A
:10232000828942F00202828104E082894FF6FD73C5
:102330001A4082817047028A4FF6DF731A40028288
:10234000028A0A430282704721B1028A42F4804223
:10235000028204E0028A4BF6FF731A400282704741
:10236000C1F308028280704701468888C0F30800E4
:102370007047818941F0010181817047028BD2B29F
:102380000283028B42EA012202837047028B02F42D
:102390007F420283028B0A430283704721B1828A03
:1023A00042F02002828204E0828A4FF6DF731A40F4
:1023B0008282704721B1828A42F01002828204E058
:1023C000828A4FF6EF731A408282704721B1828A67
:1023D00042F00802828204E0828A4FF6F7731A40C4
:1023E0008282704721B1828942F40042828103E0F7
:1023F0008289C2F30E028281704721B1828A42F43F
:102400000062828204E0828A4FF2FF731A40828265
:102410007047828A4FF6FB731A408282828A0A438F
:102420008282704721B1828A42F00202828204E0F5
:10243000828A4FF6FD731A4082827047024600205E
:10244000B1F5007F00D100BF13880B400BB1012014
:1024500000E00020704701F40072B2F5007F00D167
:1024600000BFCA430280704770B5024600240023B3
:102470000025002040F66A16B14200D100BFC1F32A
:10248000421501F01F03012606FA03F3012D02D1C4
:102490009689334006E0022D02D1168A334001E0CE
:1024A000968A33400C12012606FA04F4168834404A
:1024B00013B10CB1012000E0002070BD10B5002266
:1024C000002340F66A14A14200D100BF0A12012481
:1024D0009440A3B2DC43048010BD000000380140EA
:1024E0000044004000480040004C004000500040C4
:1024F0000948804709480047FEE7FEE7FEE7FEE798
:10250000FEE7FEE7FEE7FEE7FEE7FEE704480549D3
:10251000054A064B70470000F5030008ED0000086F
:10252000700100207007002070030020700300205D
:1025300008B501210C20FEF765FE0120ADF8000072
:1025400010208DF8030003208DF8020069460A4828
:10255000FEF77CFB0120ADF8000010208DF8030091
:1025600003208DF8020069460448FEF76FFB012046
:102570000349086008BD0000000C0140000801404C
:102580008001214270B505460C4645F25550FEF7D4
:10259000ABFC2846FEF7ABFC2046FEF7ABFCFEF793
:1025A000ACFCFEF7AFFC70BD10B5FEF7A6FC10BD8D
:1025B0007FB505460C4601210220FEF730FEADF83E
:1025C0000850ADF804400020ADF80A00ADF8060050
:1025D00001A93848FEF74EFF012211463548FFF7A2
:1025E000C0FA1D208DF8000000208DF801000320A6
:1025F0008DF8020001208DF803006846FDF77FFF8B
:1026000000212C48FFF792FA7FBD7FB505460C46A6
:1026100001210420FEF703FEADF80850ADF8044098
:102620000020ADF80A00ADF8060001A92248FEF727
:1026300021FF012211462048FFF793FA1E208DF852
:10264000000003208DF801008DF8020001208DF8B4
:1026500003006846FDF753FF01211748FFF766FAAC
:102660007FBD10B501211348FFF729FDA8B1012155
:102670001048FFF735FD11480078401C0F490870DD
:10268000084600781E2808DB0020087001200C494D
:10269000087000210748FFF749FA10BD10B5012165
:1026A0000548FFF70CFD18B101210348FFF718FD9D
:1026B00010BD000000040040000800402800002079
:1026C0002900002010B5AA4800F0ABFB002404E06C
:1026D0000020A7490855601CC4B2FF2CF8DB00207D
:1026E000A4490870FFF760FF10BD10B5A2A000F06C
:1026F00015FC4FF4967000F046FAA1A19C4800F03A
:1027000043FEA0490860FFF7DDFF0EE0FFF7DAFFA8
:1027100099A000F003FC4FF4967000F034FA98A1F1
:10272000934800F031FE97490860964800680028F9
:10273000ECD095A000F0F2FB4FF4967000F023FA75
:1027400095A000F0EBFB4FF4967000F01CFA95A0FA
:1027500000F0E4FB4FF4967000F015FA94A1844861
:1027600000F012FE87490860FFF7ACFF0EE0FFF7AC
:10277000A9FF8CA000F0D2FB4FF4967000F003FA92
:102780008BA17B4800F000FE7E4908607D48006810
:102790000028ECD087A000F0C1FB4FF4967000F049
:1027A000F2F977A1724800F0EFFD76490860FFF773
:1027B00089FF84A000F0B2FB4FF4967000F0E3F9BB
:1027C00083A16B4800F0E0FD6E490860FFF77AFFD7
:1027D0000EE0FFF777FF7BA000F0A0FB4FF49670B0
:1027E00000F0D1F97AA1624800F0CEFD6549086099
:1027F000644800680028ECD078A000F08FFB4FF40C
:10280000967000F0C0F9FFF75DFF10BD10B576A01F
:1028100000F084FB4FF4967000F0B5F9FFF752FF1B
:10282000FFF7C2FE10BD10B573A000F077FB4FF4A8
:10283000967000F0A8F97DA14D4800F0A5FD514922
:10284000086008E079A14A4800F09EFD4D49086003
:10285000642000F098F94B4800680028F2D0FFF798
:1028600031FF10BD70B504460D462A46214673A0BF
:1028700000F054FB70BD70B504460D462A46214653
:1028800074A000F04BFB4FF4967000F07CF908E068
:1028900076A1374800F078FD3A490860642000F0DE
:1028A00072F9384800680028F2D0FFF70BFF70BDBE
:1028B000704710B56FA000F031FB4FF4FA7000F0D4
:1028C00062F973A000F02AFB4FF4FA7000F05BF994
:1028D00078A1274800F058FD2A49086005E075A155
:1028E000234800F051FD2749086026480068002869
:1028F000F5D0FFF7E7FE73A000F010FB4FF4FA707D
:1029000000F041F97CA11A4800F03EFD1D49086025
:1029100005E079A1164800F037FD1A49086019480A
:1029200000680028F5D0FFF7CDFE10BDF0B5CDB0A2
:1029300004460E4617466822734933A800F09AFDF4
:102940003B46324633A901A800F0F4FA01A800F092
:102950002DFD85B201202070280A6070A5702A46DE
:1029600001A9E01C00F041FDE81CC0B24DB0F0BD73
:10297000440000204000002041540D0A00000000E7
:102980004F4B00002C00002041542B514D54444922
:1029900053433D300D0A000041542B4346554E3DF4
:1029A000310D0A0041542B43494D490D0A000000E6
:1029B0003436300041542B43474154543D310D0AC5
:1029C0000000000041542B43474154543F0D0A007E
:1029D0002B43474154543A203100000041542B43CB
:1029E00053510D0A0000000041542B5149434C4FF4
:1029F00053453D300D0A000041542B51494F50457D
:102A00004E3D312C302C22544350222C2234372E70
:102A100039392E38302E3839222C31343236392C8F
:102A2000313233342C310D0A000000002B51494F54
:102A300050454E3A20302C300000000041542B51BC
:102A4000534F53454E443D302C25732C25730D0AAE
:102A50000000000041542B514953454E4445583D18
:102A6000302C25732C25730D0A00000053454E446D
:102A7000204F4B0041542B514D544346473D227645
:102A8000657273696F6E222C302C310D0A000000C4
:102A900041542B514D544F50454E3D302C2231382E
:102AA000332E3233302E34302E3339222C36303020
:102AB000320D0A002B514D544F50454E3A20302CC8
:102AC0003000000041542B514D54434F4E4E3D3089
:102AD0002C22353937393532333636222C223332EF
:102AE00033363431222C22313233343536373839CB
:102AF00030220D0A000000002B514D54434F4E4E22
:102B00003A20302C302C30000C38000810B56FF013
:102B10000400FDF73EFD2E4800682E49B0FBF1F0A1
:102B20002D4908700846007800EB4001C1EBC01049
:102B30004FF6FF7101EAC0002849088010BD014628
:102B4000254A12784A434FF0E0235A6100229A61E5
:102B50001A46126942F001021A6100BF4FF0E022EA
:102B6000106900F001021AB100F48032002AF5D099
:102B70004FF0E022126922F001024FF0E0231A61C7
:102B800000229A6170470146144A12884A434FF066
:102B9000E0235A6100229A611A46126942F001024A
:102BA0001A6100BF4FF0E022106900F001021AB173
:102BB00000F48032002AF5D04FF0E022126922F0B2
:102BC00001024FF0E0231A6100229A617047000071
:102BD0000000002000127A0034000020360000209F
:102BE00010B54FF4A060FDF785FC10BD00BF704725
:102BF00000BFC24A128802F04002002AF9D0C2B2D5
:102C0000BE4B1B1D1A80704710B5044600BF8021C3
:102C1000BB48FFF713FC0028F9D02146B848FFF75E
:102C20009FFB10BD10B5044600BF8021B348FFF7DD
:102C300005FC0028F9D02146B048FFF791FB10BDF4
:102C400010B586B00446012144F20400FEF7DAFA1A
:102C5000AB48FFF749FA4FF40070ADF814000320B9
:102C60008DF8160018208DF8170005A9A548FDF766
:102C7000EDFF4FF48060ADF8140048208DF8170088
:102C800005A9A048FDF7E2FF25208DF800000320EC
:102C90008DF801008DF8020001208DF803006846D0
:102CA000FDF72DFC01940020ADF80800ADF80A00F6
:102CB000ADF80C00ADF810000C20ADF80E0001A925
:102CC0008F48FFF754FA012240F225518C48FFF754
:102CD000E6FA01218A48FFF7D6FA06B010BD10B512
:102CE00086B0044601210420FEF78CFA0121480435
:102CF000FEF795FA8148FFF7F7F90420ADF81400C4
:102D000003208DF8160018208DF8170005A97D48BE
:102D1000FDF79CFF0820ADF8140004208DF8170083
:102D200005A97848FDF792FF26208DF800000020C5
:102D30008DF8010001208DF802008DF8030068462F
:102D4000FDF7DDFB01940020ADF80800ADF80A00A6
:102D5000ADF80C00ADF810000C20ADF80E0001A984
:102D60006648FFF704FA012240F225516348FFF755
:102D700096FA01216148FFF786FA06B010BD10B53A
:102D800086B0044601210820FEF73CFA01218804A0
:102D9000FEF745FA5C48FFF7A7F94FF48060ADF8FD
:102DA000140003208DF8160018208DF8170005A9CF
:102DB0005648FDF74BFF4FF40060ADF814000420B7
:102DC0008DF8170005A95148FDF740FF27208DF821
:102DD000000000208DF8010001208DF802008DF820
:102DE00003006846FDF78BFB01940020ADF8080056
:102DF000ADF80A00ADF80C00ADF810000C20ADF8ED
:102E00000E0001A94048FFF7B2F9012240F2255116
:102E10003D48FFF744FA01213B48FFF734FA06B07A
:102E200010BD0BE000BF3649098801F040010029C0
:102E3000F9D00178324A121D1180401C0178002916
:102E4000F0D1704710B5024600200CE000BF2B4BBC
:102E50001B8803F04003002BF9D0135C274C241D82
:102E60002380431CD8B28842F0DB10BD0BE000BFCA
:102E70002549098801F040010029F9D00178224A4A
:102E8000121D1180401C01780029F0D1704710B547
:102E900040F225511A48FFF7E7FA18B11848FFF732
:102EA00063FAC4B210BD10B540F225511348FFF7C4
:102EB000DBFAB0B11148FFF757FAC4B20F48FFF779
:102EC00053FAC1B2124802780078401C104B1870B7
:102ED0001048815418460078632802DD0020194606
:102EE000087010BD10B540F225510748FFF7BCFA35
:102EF00018B10548FFF738FAC4B210BD00440040CD
:102F0000003801400008014000480040000C01402A
:102F10004000002044000020704700000FB4044926
:102F200010B503AA029800F069FB10BC5DF814FB11
:102F30003C0000200FB41CB5074B06AA7B44694631
:102F40000090059800F02BFB0020694600F03AFB4A
:102F50001CBC5DF814FB00008506000070B504463B
:102F600085690068C10601D5302600E02026C0072B
:102F700007D070BDD4E9012130469047206A401C3B
:102F800020626D1EF6D570BD70B504468569007867
:102F9000C00707D170BDD4E9012120209047206AE5
:102FA000401C20626D1EF6D570BD09684A0501D52A
:102FB00040B27047C905FCD500B2704709684A05A0
:102FC00001D5C0B27047C905FCD580B2704770B555
:102FD0000C460546012A05D02878800600D5EA6906
:102FE000002302E0012305E05B1C934202D2E05C77
:102FF0000028F9D1A869E618C01AA861286A1844FF
:1030000028622846FFF7AAFF04E0D5E9012114F859
:10301000010B9047B442F8D32846FFF7B5FF70BDC7
:103020002DE9F0410646002410687529314616A5A1
:1030300010D0FFF7BAFF002802DA404213A507E0DC
:1030400031688A0701D512A502E0490704D511A508
:10305000012401E0FFF7B2FF00210A2206F1240754
:1030600009E0B0FBF2FCB0FBF2F302FB1C003030D5
:1030700078541846491C0028F3D123462A46304686
:10308000BDE8F04100F02CBA000000002D00000067
:103090002B000000200000002DE9FF5F15468A4646
:1030A0000446DFF8AC80F8440027D8E900103E461B
:1030B000CDE9001010E03AF816106A4602A800F0B8
:1030C000C5FA411C07D02178890603D5E269391871
:1030D00091420DD80744761C2078800602D5E0691D
:1030E000B84205DDAE42E6DB3AF816000028E2D130
:1030F000A069C01BA0612046FFF730FFD8E900108F
:10310000CDE90010002017E03AF818106A4602A82E
:1031100000F09CFAB0F1FF3F81460BD000250DF185
:10312000080B05E0D4E901211BF8050090476D1C50
:103130004D45F7D308F10100B0428046E4DB206A38
:10314000384420622046FFF71FFFBDE8FF9F0000C4
:103150001E07000070B5044621461068FFF72EFFD9
:10316000002104F1240505E000F007023032C00818
:103170006A54491C0028F7D12068002308A20507DB
:1031800008D500F02000084304D0E069012305A21F
:10319000401EE0612046BDE8704000F0A1B900008B
:1031A000000000003000000070B504460D462146C6
:1031B0001068FFF703FF2188090502D50F4A7A44FA
:1031C00002E00E4A7A440E32002104F1240305E0A5
:1031D00000F00F060009965D5E54491C0028F7D1E7
:1031E00020780023000704D5702D02D009B10223F6
:1031F00011322046BDE8704000F072B90E060000A2
:103200002DE9F05F894604464FF0000ADFF874B1FB
:10321000FB44C0F820A02046E1688847002874D00D
:10322000252806D0D4E901219047206A401C20625D
:10323000F1E700265F462046E168884720280546DA
:1032400007DB312D05D2781910F8200C08B10643A0
:10325000F1E7B00701D526F00406C4F81CA000274A
:10326000C4F818A02A2D09D0284600F08FFA38B3E8
:1032700004EB8708303DC8F8185019E059F8041BD2
:10328000204604EB87029161E1688847012F0546DB
:1032900018D1E069002820DA26F020061DE0D8F8D1
:1032A000180000EB800005EB40003038C8F818002B
:1032B0002046E1688847054600F068FA0028EED10C
:1032C000012F0AD02E2D08D12046E16888477F1CA7
:1032D0000546022F46F02006C4DBA069002803DA69
:1032E000404246F00106A061F00701D026F010062A
:1032F0006C2D0BD0682D09D04C2D39D06A2D35D0CE
:10330000742D35D07A2D33D016E038E0E1682F46A1
:1033100020468847B842054609D16C2F26D04FF485
:103320008060E168064320468847054604E06C2F2C
:103330001AD04FF4807006430DB3A5F1410019284F
:1033400002D8203546F400664A46294620462660C3
:103350004E46FCF705FF80B101280BD0F61D26F084
:10336000070000F1080956E74020E4E78020D8E78D
:103370000020D6E706F104094DE7284652E7206A07
:10338000BDE8F09FE405000030B505460B462A462F
:1033900013F8014B12F8010B08B1A042F8D01CB190
:1033A000002802D06D1CF1E7284630BD10B5431C43
:1033B00002E010F8011B71B18107FAD14FF0013220
:1033C00002C88C1A8C4314EAC211F9D0C01A0A063A
:1033D00003D0C01E10BDC01A10BD0A0401D0801E4B
:1033E00010BD0902FCD0401E10BD032A40F23080FF
:1033F00010F0030C00F0158011F8013BBCF1020F36
:10340000624498BF11F801CB00F8013B38BF11F8B6
:10341000013BA2F1040298BF00F801CB38BF00F8CD
:10342000013B11F0030300F02580083AC0F008804A
:1034300051F8043B083A51F804CBA0E80810F5E72E
:10344000121D5CBF51F8043B40F8043BAFF3008011
:10345000D20724BF11F8013B11F801CB48BF11F886
:10346000012B24BF00F8013B00F801CB48BF00F856
:10347000012B704710B5203AC0F00B80B1E818500E
:10348000203AA0E81850B1E81850A0E81850BFF44E
:10349000F5AF5FEA027C24BFB1E81850A0E81850ED
:1034A00044BF18C918C0BDE810405FEA827C24BF41
:1034B00051F8043B40F8043B08BF7047D20728BFCF
:1034C00031F8023B48BF11F8012B28BF20F8023B1E
:1034D00048BF00F8012B704770477047704770472E
:1034E0002DE9F0470D4699469246044600F124081E
:1034F0000168880604D5E06921F01001216000E030
:103500000120A84201DD471B00E00027A1697A19CC
:1035100002EB0900081AA0612078C00602D42046F8
:10352000FFF71CFD002608E0D4E901211AF8060087
:103530009047206A401C761C20624E45F4DB2078C0
:10354000C0060AD52046FFF709FD06E0D4E90121AF
:1035500030209047206A401C2062381EA7F10107E6
:10356000F4DC07E0D4E9012118F805009047206A4F
:10357000401C2062281EA5F10105F3DC2046FFF760
:1035800003FD2078000602D50220BDE8F087012067
:10359000FBE7000001694A1C02610878704700B52A
:1035A0008FB0CDE901310021059105497944CDE97C
:1035B000031011466846FFF723FE0FB000BD000060
:1035C000E5FFFFFF0A6802F8010B0A60704710B5BB
:1035D000436913B1AFF3008001E0FFF7F8FC01206D
:1035E00010BD127800F124010A7000224A700122F5
:1035F000EDE711684FF0FF32E9E70000074B70B5C7
:103600000D467B44FFF7CBFF0446284600F046F802
:1036100010B14FF0FF3070BD204670BDEBF5FFFFDD
:1036200010B5436913B1AFF3008001E0FFF734FD3B
:10363000012010BD128800F1240182840022C2847E
:103640000122EDE711684FF0FF32E9E770B5164649
:103650000C46054600F01AF8036893F801010128AA
:1036600006D0FF2C0FD8185D68B101202C7070BDFA
:10367000D3F807013246214603F2071303442846D4
:10368000BDE8704018474FF0FF3070BD10B500F036
:103690002FF8001D10BD00BF05010000007B00F0E9
:1036A00080007047754600F02DF8AE46050069466B
:1036B000534620F00700854618B020B5FEF726FFD8
:1036C000BDE820404FF000064FF000074FF0000823
:1036D0004FF0000B21F00701AC46ACE8C009ACE8A4
:1036E000C009ACE8C009ACE8C0098D4670470000CD
:1036F000004870472C0100200446AFF300802046AC
:10370000FCF763FD004870470C0100204FF0013CBE
:1037100050F8042B51F8043B9A4221D1A2EB0C0340
:10372000934313EACC1317D150F8042B51F8043B00
:103730009A4215D1A2EB0C03934313EACC130BD19D
:1037400050F8042B51F8043B9A4209D1A2EB0C0328
:10375000934313EACC13DBD04FF00000704700BF57
:10376000D01A01BAB1FA81F101F0180122FA01F080
:10377000CB40C1F12001DBB2C0B2C01A2CFA01F378
:10378000D11A914311EAC311E6D1704730380A28A3
:1037900001D20120704700207047000010B50029B9
:1037A0000AD00878002807D005487844FFF7AEFF14
:1037B000002801D0002010BD0248784410BD000050
:1037C000EA000000E200000000000000000000002D
:1037D0003031323334353637383941424344454647
:1037E0004030580030313233343536373839616241
:1037F0006364656640307800040000080000000043
:103800000000000200010000100000007B22646143
:10381000746173747265616D73223A5B7B226964B3
:10382000223A2274656D70222C2264617461706F7B
:10383000696E7473223A5B7B2276616C7565223AFD
:1038400025647D5D7D2C7B226964223A2268756D3A
:1038500069222C2264617461706F696E7473223AFC
:103860005B7B2276616C7565223A25647D5D7D5DAA
:103870007D000000A4390008000000204400000082
:1038800028010008E8390008440000202C07000047
:10389000440100081001000043000000F8FFFFFF92
:1038A0000040404040404040404041414141414053
:1038B0004040404040404040404040404040404008
:1038C0004005020202020202020202020202020297
:1038D000022020202020202020202002020202029C
:1038E00002029090909090901010101010101010F4
:1038F0001010101010101010101010100202020200
:103900000202888888888888080808080808080843
:10391000080808080808080808080808020202023F
:103920004000000000000000000000000000000057
:103930000000000000000000000000000000000087
:103940000000000000000000000000000000000077
:103950000000000000000000000000000000000067
:103960000000000000000000000000000000000057
:103970000000000000000000000000000000000047
:103980000000000000000000000000000000000037
:103990000000000000000000000000000000000027
:1039A0000000000000A24A04000000000000000027
:1039B00001020304060708090000000001020304D5
:1039C00001020304060708090204060800000000BB
:1039D00000000000000000000000000000000000E7
:0839E0000000000000000000DF
:04000005080000ED02
:00000001FF
