:020000040800F2
:1000000068080020B5010008D12C00088D260008E2
:10001000D92A0008CD110008152E000800000000A4
:10002000000000000000000000000000D92C0008C3
:10003000D111000800000000D52C0008DD2C0008BC
:10004000CF010008CF010008CF010008CF01000850
:10005000CF010008CF010008CF010008CF01000840
:10006000CF010008CF010008CF010008CF01000830
:10007000CF010008CF010008CF010008CF01000820
:10008000CF010008CF010008CF010008CF01000810
:10009000CF010008CF010008CF010008CF01000800
:1000A000CF010008CF010008CF010008CF010008F0
:1000B000CF010008CF010008CF010008CF010008E0
:1000C000CF010008CF010008CF010008CF010008D0
:1000D000CF010008F12D0008FD2D0008092E0008B1
:1000E000CF010008CF010008CF01000800F002F89E
:1000F00000F050F80AA090E8000C82448344AAF172
:100100000107DA4501D100F045F8AFF2090EBAE86F
:100110000F0013F0010F18BFFB1A43F0010318473B
:10012000283B0000483B0000103A24BF78C878C143
:10013000FAD8520724BF30C830C144BF04680C60ED
:10014000704700000023002400250026103A28BF35
:1001500078C1FBD8520728BF30C148BF0B60704739
:10016000662903F0B584652903F0B284672903F09A
:10017000AF84612903F0AE84002070471FB500F002
:1001800071FD04000020002103F03AFBE0601FBD78
:1001900010B510BD00F066FE1146FFF7EFFF02F04C
:1001A000EBFE00F084FE03B4FFF7F2FF03BC00F0A7
:1001B000C7FE00000948804709480047FEE7FEE700
:1001C000FEE7FEE7FEE7FEE7FEE7FEE7FEE7FEE707
:1001D00004480549054A064B70470000E12C000819
:1001E000ED00000868020020680800206804002074
:1001F000680400200FB41CB5074B06AA7B4469466F
:100200000090059800F015FD0020694600F024FDDF
:100210001CBC5DF814FB0000590A000070B50446D0
:1002200085690068C10601D5302600E02026C00798
:1002300007D070BDD4E9012130469047206A401CA8
:1002400020626D1EF6D570BD70B5044685690078D4
:10025000C00707D170BDD4E9012120209047206A52
:10026000401C20626D1EF6D570BD00002DE9F05FC8
:10027000894604464FF0000ADFF874B1FB44C0F829
:1002800020A02046E1688847002874D0252806D0A1
:10029000D4E901219047206A401C2062F1E7002642
:1002A0005F462046E16888472028054607DB312D58
:1002B00005D2781910F8200C08B10643F1E7B00711
:1002C00001D526F00406C4F81CA00027C4F818A025
:1002D0002A2D09D0284603F08BFA38B304EB87089F
:1002E000303DC8F8185019E059F8041B204604EBBB
:1002F00087029161E1688847012F054618D1E069BE
:10030000002820DA26F020061DE0D8F8180000EBBF
:10031000800005EB40003038C8F818002046E1683E
:100320008847054603F064FA0028EED1012F0AD071
:100330002E2D08D12046E16888477F1C0546022FF4
:1003400046F02006C4DBA069002803DA404246F0EC
:100350000106A061F00701D026F010066C2D0BD02D
:10036000682D09D04C2D39D06A2D35D0742D35D05B
:100370007A2D33D016E038E0E1682F4620468847D2
:10038000B842054609D16C2F26D04FF48060E16851
:10039000064320468847054604E06C2F1AD04FF4E8
:1003A000807006430DB3A5F14100192802D820350D
:1003B00046F400664A462946204626604E46FFF728
:1003C000CFFE80B101280BD0F61D26F0070000F10A
:1003D000080956E74020E4E78020D8E70020D6E768
:1003E00006F104094DE7284652E7206ABDE8F09F70
:1003F0005838000030B505460B462A4613F8014B25
:1004000012F8010B08B1A042F8D01CB1002802D0AC
:100410006D1CF1E7284630BD10B5431C02E010F812
:10042000011B71B18107FAD14FF0013202C88C1A59
:100430008C4314EAC211F9D0C01A0A0603D0C01EB8
:1004400010BDC01A10BD0A0401D0801E10BD0902E3
:10045000FCD0401E10BD10B5203AC0F00B80B1E8B2
:100460001850A0E81850B1E81850A0E81850203AE9
:10047000BFF4F5AF5FEA027C24BFB1E81850A0E8F2
:10048000185044BF18C918C0BDE810405FEA827C0C
:1004900024BF51F8043B40F8043B08BF7047D20723
:1004A00028BF31F8023B48BF11F8012B28BF20F8C4
:1004B000023B48BF00F8012B70474FF0000200B527
:1004C000134694469646203922BFA0E80C50A0E877
:1004D0000C50B1F12001BFF4F7AF090728BFA0E825
:1004E0000C5048BF0CC05DF804EB890028BF40F8F1
:1004F000042B08BF704748BF20F8022B11F0804F33
:1005000018BF00F8012B70477047704770472DE9FE
:10051000FF4F0C461E464FF0FF378BB0D2E900016B
:10052000DDF860800A908A46C1F30A5505B93D4658
:10053000002108464FF00000BAF1000F00F440001F
:1005400005DA00EB80004FF4400101EA50004FEA69
:100550009059B9F1010F00DDB9460A9850EA4A00F6
:100560000ED044F61050A5F2FF3545432F14B8F1D4
:10057000000F1ED07542291E1EDDC9F100021CE0CD
:10058000B8F1010F4FF0000001D0302103E0F24339
:1005900005E02154401CB042FBDB30460022002124
:1005A00021540B99C1F80880C1E900200FB0BDE8C3
:1005B000F08FBD1B6D1CDEE74A4600DA694206A8D3
:1005C00000F0DAFB06AB93E8070003AB83E8070013
:1005D00050460A9902F02FFD8DE80700A0F5005063
:1005E0001F3800900398002D0ADD42F21F014A4691
:1005F0000844002303A90390684602F099FF09E02C
:10060000A0F500504A461F38002303A9039068460E
:1006100002F0A3FF8DE807000004000C03D04FF0A8
:10062000FF30410800E01046B8F1000F03D000226F
:10063000009215461EE0751E05D400F017FB3032FF
:1006400062556D1EF9D5B3460122084302D000223F
:100650007F1C04E02078302801D100227F1E002A70
:10066000099784D01DE0112D07DA00F0FFFA30322F
:1006700062556D1C50EA0102F5D1084302D0009882
:10068000C8B10EE00021681E05E0235C625C635483
:100690002254401E491C8142F7DBAB46A81B401E7A
:1006A0000990002004F80B000B98099AC0F8088004
:1006B000C0E9002B7AE711264FF0000857E72DE933
:1006C000F04F88460446D21D22F0070191B0D1E9CF
:1006D0000001CDE90A0103F077F802460B98C00F3C
:1006E00001D02D2007E02068810701D52B2002E0F2
:1006F000202101EAC000032A099001D0072A05DB66
:1007000003464146204600F0F7FA0BE120788006C8
:1007100001D5E06900E00620B8F1650F814606D0FA
:10072000B8F1660F18D0B8F1670F70D131E0002032
:10073000B9F1110F009001DB112301E009F1010370
:100740000AAA01A90CA8FFF7E2FEDDE90C70002659
:1007500009F10105834647E001204B4600904FF028
:1007600000470AAA01A90CA8FFF7D1FEDDE90DB0E8
:100770000C995D46002610B909F101000D18B9EB7E
:10078000050003D4C0F1FF3609F10105A5EB09000E
:100790002BE0B9F1010F01DA4FF001090020B9F1A6
:1007A000110F0090484601DD112300E003460AAA1C
:1007B00001A90CA8FFF7ABFEDDE90C704D46002641
:1007C0008346207800070AD4AB4500DA5D4601A8CD
:1007D000012D04DD411911F8011C302907D04F45C6
:1007E00002DA17F1040F04DA012082460FE06D1ED1
:1007F000EEE7002F02DCED1B3E4403E0781CA8422C
:1008000000DD7D1CB81B00F1010A4FF00047207885
:10081000000703D4AA4501DB4FF0FF3A0021B7F1EE
:10082000004F0DF143088DF8431024D002202B23F4
:10083000002F01DA7F422D230A21021EA0F10100C0
:1008400000DC5FB197FBF1FC97FBF1F201FB1C7C34
:1008500017460CF1300C08F801CDEEE7A8F10100C5
:1008600003702188090501D5452100E06521A0F12B
:10087000010800F8011C09980FA9A1EB0807FF1D4A
:1008800000B10120411901EBEA70A1693844081A4E
:10089000401EA0612078C00602D42046FFF7BEFCAF
:1008A000099828B1D4E901219047206A401C2062B0
:1008B0002078C00622D52046FFF7B0FC1EE0002EAF
:1008C00004DBB34502DD01A8805D00E03020D4E9FF
:1008D00001219047206A401C2062761CAAF1010089
:1008E0005FEA000A0AD100F0BDF9C0680168405C07
:1008F000D4E901219047206A401C2062281EA5F1FE
:100900000105DCDC07E0D4E9012118F8010B904770
:10091000206A401C2062381EA7F10107F3DC204644
:10092000FFF792FC032011B041E600002DE9F04FE3
:1009300004460D46D21D22F0070089B0D0E9009789
:100940004846394602F040FF0246F80F01D02D23F9
:1009500007E02068810701D52B2302E0202101EA6E
:10096000C0038DF820300BB1012000E00020032AE5
:10097000824601D0072A04DB2946204600F0BCF954
:100980003FE12078800601D40D2500E0E569C7F33A
:100990000A560D2D49DA00214FEA175B08464FF041
:1009A0000000002F00F4400007DA00EB80004FF455
:1009B000400100EBD07001EA60008115012901DDE2
:1009C0004FF0FF3100224FEA850CBCF1180F06D31F
:1009D0001346ACF118004FF08052C24003E04FF4D0
:1009E000801323FA0CF30CF10C0CBCF1200F04D390
:1009F000ACF1200C09FA0CF001E007FA0CF0002928
:100A00004FF0004801DD18B90FE00ED140450CD37E
:100A100019EB02095F4121B9404502D19F4329EA00
:100A20000209BBEB175F00D0761C2088000502D5B9
:100A30007B48784402E07A487844193808AA302381
:100A400002F80A30037C0AF10101002E0AF1020AC1
:100A500053546A4602DC4FF0300101E04FF031019F
:100A60004FF001088DF8001002D0A6F2FF3603E027
:100A700059EA470100D06B4E002D02DC21780907AE
:100A800004D54FF002082E218DF80110C446002134
:100A90000BE0C7F303433F01C35C491C6D1E02F822
:100AA0000830052908F1010801DA002DF1DC0021E8
:100AB0000CE000EB1973491C1B786D1E082902F825
:100AC00008304FEA091908F1010801DA002DF0DCBD
:100AD00021688B0602D516E0A8F10108E04505DD86
:100AE00002EB080313F8013C302BF5D0B8F1000FEE
:100AF00009DD02EB080313F8013C2E2B03D1090793
:100B000001D4A8F10108002D05DD3E2102F80810EE
:100B10006D1E08F10108407C002E02F8080008F163
:100B2000010804DA2D20764202F8080002E02B20AA
:100B300002F808000A214FF47A70864208F1010891
:100B40000BDB96FBF0F3303302F8083096FBF0F342
:100B500008F1010800FB136601E0642E0CDB642041
:100B600096FBF0F3303302F8083096FBF0F308F10F
:100B7000010800FB136601E00A2E06DB96FBF1F08C
:100B8000303002F8080008F1010896FBF1F001FB93
:100B90001060303002F80800A16908F1010808EB84
:100BA000050202EB0A00081AA0612078C00602D4F0
:100BB0002046FFF733FB216A08AE01EB0A002062F2
:100BC00004E0D4E9012116F8010B9047BAF1010ABB
:100BD000F7D22078C00602D52046FFF71FFB6E46ED
:100BE00009E016F8010B3E280FD0D4E90121904707
:100BF000206A401C2062B8F10108F2D22046FFF7BB
:100C000023FB09B00320BDE8F08F206A284420624E
:100C100003E0D4E90121302090476D1EEBD3F8E7C3
:100C2000C630000002FCFFFF01694A1C026108781F
:100C3000704700B58FB0CDE901310021059105491C
:100C40007944CDE9031011466846FFF70FFB0FB05A
:100C500000BD0000E5FFFFFF0A6802F8010B0A6013
:100C600070470000004870473000002030B5B0F1F8
:100C70000A0271F100034FEA900E4EEA817EB0EB5A
:100C80000E0061EB91014FEA101E4EEA017E10EB5F
:100C90000E0041EB11114FEA102E4EEA016E10EBDF
:100CA0000E0041EB11214FEA104E4EEA014E10EBBF
:100CB0000E0041EB1141401841F100014FEAD00014
:100CC00040EA41704FEAD1014FEA810444EA90744E
:100CD00010EB800544EB01046D1944EB0404521B36
:100CE000A3414FF0000348BF0A3200D530BD401C7D
:100CF00041F1000130BD00002DE9F0411F460446DE
:100D000003260168072A01F4006004DB08B116A578
:100D100005E016A503E008B115A500E015A521F032
:100D200010002060A069C01EA0610FB1401EA0612C
:100D30002046FFF773FA4FB1D4E9012138469047B6
:100D4000206A401C2062C01C206206E0206AFAE78C
:100D5000D4E9012115F8010B9047761EF8D2204600
:100D6000FFF772FABDE8F0814E414E006E616E00F1
:100D7000494E4600696E66002DE9F04781461646E9
:100D80008AB0354878440DC88DE80D003248784463
:100D9000801C03AC0DC884E80D0041F69B3008446C
:100DA000372190FBF1F290FBF1F5A5F1800501FBF5
:100DB00012041B3C02D56442012000E00020DFF851
:100DC00098A080460027FA44AAF1BE0A0EE0E00788
:100DD0000AD03246684607EB470101230AEB81013E
:100DE00002F0BBFB8DE8070064107F1C002CEED1E5
:100DF000194F7F44AE3F19E0E80715D007EB041008
:100E00000DF1180A90E80E008AE80E00C068F04262
:100E100001D1981908903246012306A903A802F0CF
:100E20009CFB03AB83E807006D10641C002DE3D12D
:100E30004FF0010332466946B8F1000F03A802D013
:100E400002F076FB01E002F088FBC9E90001C9F875
:100E500008200AB0BDE8F087042E00000048704763
:100E6000100000207546FFF7F9FFAE460500694601
:100E7000534620F00700854618B020B5FFF7A8F9C3
:100E8000BDE820404FF000064FF000074FF000088B
:100E90004FF0000BAC46ACE8C009ACE8C009ACE8C8
:100EA000C009ACE8C00921F007018D46704710B5B4
:100EB0000446AFF300802046BDE81040FFF773B949
:100EC0004FF0013C50F8042B51F8043B9A4221D1D9
:100ED000A2EB0C03934313EACC1317D150F8042B65
:100EE00051F8043B9A4215D1A2EB0C03934313EA49
:100EF000CC130BD150F8042B51F8043B9A4209D182
:100F0000A2EB0C03934313EACC13DBD04FF00000A9
:100F1000704700BFD01A01BAB1FA81F101F018018F
:100F200022FA01F0CB40DBB2C0B2C01AC1F12001FD
:100F30002CFA01F3D11A914311EAC311E6D170479B
:100F400001491820ABBEFEE72600020070470000F2
:100F5000F0B58DB045F24141C0F60D210A9140F641
:100F60003151C0F20A01099145F24651C3F64E5182
:100F70000A220020089145F24141069244F6495266
:100F800003AB0B90C4F22B31C0F6495207C343F2B6
:100F90003D10C0F60D20029044F2471040F28C0440
:100FA000C5F25440C2F200040791CDE9001020467A
:100FB000FF21FFF782FA40F2D415C2F2000528465D
:100FC0002146FF2201F03EFA28462146FF2201F089
:100FD00039FA0AA9284604224FF0FF3301F0A0FA9B
:100FE0004FF4487000F07AF943F6F431C0F600018E
:100FF0002046FFF7FFF938BB40F2D41440F28C06CC
:1010000043F6F437C2F200040AADC2F20006C0F69D
:10101000000700BF2046294604224FF0FF3301F0AD
:101020007FFA4FF4FA6000F059F93046FF21FFF7DC
:1010300044FA20463146FF2201F004FA3046394690
:10104000FFF7D8F90028E5D040F2D410C2F2000032
:1010500007A90B224FF0FF3301F062FA4FF44870FA
:1010600000F03CF940F28C0043F6F431C2F200008B
:10107000C0F60001FFF7BEF930BB40F2D41440F2D5
:101080008C0643F6F437C2F2000407ADC2F2000644
:10109000C0F60007204629460B224FF0FF3301F02F
:1010A0003FFA4FF4FA6000F019F93046FF21FFF7DC
:1010B00004FA20463146FF2201F0C4F93046394691
:1010C000FFF798F90028E5D040F2D410C2F20000F2
:1010D00069460C224FF0FF3301F022FA4FF44870BA
:1010E00000F0FCF840F28C0043F6F431C2F200004C
:1010F000C0F60001FFF77EF930BB40F2D41440F295
:101100008C0643F6F437C2F200046D46C2F20006C4
:10111000C0F60007204629460C224FF0FF3301F0AD
:10112000FFF94FF4FA6000F0D9F83046FF21FFF7DD
:10113000C4F920463146FF2201F084F93046394691
:10114000FFF758F90028E5D040F2D410C2F20000B1
:1011500004A909224FF0FF3301F0E2F94FF448707F
:1011600000F0BCF840F28C0043F6F031C2F200000F
:10117000C0F60001FFF73EF930BB40F2D41440F254
:101180008C0643F6F037C2F2000404ADC2F200064A
:10119000C0F600072046294609224FF0FF3301F030
:1011A000BFF94FF4FA6000F099F83046FF21FFF7DD
:1011B00084F920463146FF2201F044F93046394691
:1011C000FFF718F90028E5D00DB0F0BDFEE70000EC
:1011D00070470000EFF3108072B600BFFEE700001A
:1011E000014690F82100022816D10868D1E90FC302
:1011F000026822F00E020260026822F00102026020
:10120000012000FA03F2CCF8042081F8210000202C
:10121000002281F8202070470420886301200022EA
:1012200081F820207047000080B590F82110022935
:1012300024D10268116821F00E0111602F2113687A
:10124000C4F202018A4240F20401C4F2020123F016
:101250000103136016DD3023C4F202039A421DD04D
:101260004423C4F202039A421CD05823C4F202035E
:101270009A421DD14FF4803322E000BF04218163E4
:10128000012080BD0823C4F202039A420ED01C2321
:10129000C4F202039A420BD1102311E04FF4807381
:1012A0000EE000BF4FF480530AE000BF012307E0C7
:1012B00001F1680C4FF08073624508BF4FF4801352
:1012C0000B60012180F82110426B002180F8201072
:1012D0000AB190470021084680BD0000B0B5044621
:1012E00000F020F9054640F20000C2F2000000784C
:1012F000611C18BF044400BF00F014F9401BA04259
:10130000FAD3B0BD2DE9F04F82B041F20042C4F2F1
:1013100001020E680423904208BF0323002E0093AD
:1013200000F0F68040F2004C4FF6FF7E0022C4F23F
:10133000010C0124C1F2100E4FF0000A4FF0000919
:1013400047E000BF012502F00C040F27A7402BEA5D
:10135000070705FA04F43C4343F82640D1F804B0EB
:1013600040F20C455FEACB23DCF8083054BF23EA97
:10137000080343EA0803C4F20105CCF808302B68DF
:101380005FEA8B2454BF23EA080343EA08032B6077
:101390005FEA8B34DCF8043054BF23EA080343EAE5
:1013A00008035FEACB34CCF80430DCF800304FF0AF
:1013B000010454BF23EA080343EA0803CCF80030D1
:1013C0000E680AF1010A36FA0AF302F1040200F08B
:1013D0009F8004FA0AF816EA080FF1D04B687345AB
:1013E00012DC122B56D8DFE803F0350B4549555572
:1013F00055555555555555555555554D510000BFE9
:10140000D1F80C9046E000BF4FF6FF75C1F2210500
:10141000AB420FDC0025C1F21105AB421AD000250A
:10142000C1F21205AB4215D00025C1F22105AB4235
:1014300010D02FE00025C1F22205AB420AD00025D2
:10144000C1F23105AB4205D00025C1F23205AB42F5
:1014500020D100BF8B684BB1012B14BFC0F81480A2
:10146000C0F810804FF0080914E000BF4FF00409E5
:1014700010E000BFCB6803F108090BE04FF0000952
:1014800008E000BFCB6803F1040903E0CB6803F177
:101490000C0900BF13460546BAF1080F24BF203BD4
:1014A00004352E680F279F40BE4309FA03F33343E8
:1014B0002B60CB79DB067FF583AF41F21804C4F2D1
:1014C000020423684FEA9A0643F00103236023686D
:1014D00040F6000403F001030193019BACF57E7319
:1014E00053F826B0C4F20104A0420FD040F60044E5
:1014F000C4F20104A0423FF425AF41F20004C4F25B
:101500000104009DA04208BF02251CE700251AE740
:1015100002B0BDE8F08F0000002A08BF0904016195
:101520007047000040F26420C2F20000006870477B
:1015300040F2000040F26421C2F20000C2F2000159
:1015400000780A68104408607047000080B542F2D5
:101550000000C4F20200016841F0100101600320A4
:1015600000F08AF80F2000F005F800F027F80020BE
:1015700080BD000070B540F20006C2F2000640F2E5
:1015800008013278C2F200014FF47A730968B3FBA4
:10159000F2F20446B1FBF2F1084600F05FFB0F2CBB
:1015A0004FF0010508D838B94FF0FF30214600222E
:1015B000002500F035F87460284670BD82B041F215
:1015C0001800C4F202000168022241F0010101602A
:1015D000016801F0010101910199416841F08051D8
:1015E0004160406800F08050009000980420C4F2F0
:1015F0000100016862F31A61016002B070470000E7
:10160000002848BF704700F01F01012202FA01F1D3
:101610004EF200124009CEF2000242F8201070474C
:1016200010B54EF60C5CCEF2000CDCF80030C3F3C3
:10163000022E8EF00704042C28BF0424BEF10303FD
:101640004FF0FF3E0EFA04F438BF0023A143994047
:101650000EFA03F39A43114300F00F02043A624476
:1016600009010C3200F16043B0F1FF3FC8BF03F540
:101670006442117010BD00004EF60C51CEF2000114
:101680000A684FF6FF031A4060F30A2242F08060B6
:1016900040F0FD70086070472DE9F04381B00028EC
:1016A00000F0858042F20008C4F202080446D8F82F
:1016B00000000D4600F0070088420CD2D8F8000068
:1016C00020F007002843C8F80000D8F8000000F018
:1016D0000700A8426BD1206841F204098107C4F2D7
:1016E000020917D5410705D5D9F8001041F4E0618A
:1016F000C9F80010010705D5D9F8001041F4605170
:10170000C9F80010D9F80010A26821F0F0011143C7
:10171000C9F80010C00741D1D8F8000000F0070058
:10172000A8420CD9D8F8000020F007002843C8F8D8
:101730000000D8F8000000F00700A84237D1206868
:10174000410707D5D9F80010E26821F4E0611143A0
:10175000C9F80010000708D5D9F80000216920F465
:10176000605040EAC100C9F80000D9F8002002F03A
:101770000C00082841F20020C0F27A0050D143F654
:10178000BE33C2F38341C0F60003595CD2033BD49D
:1017900040F60010C0F23D00484341E06068022876
:1017A0000AD001282AD159F8041C890308D4012041
:1017B00001B0BDE8F08300BF59F8041C8901F6D5DB
:1017C000D9F8001021F003010843C9F80000FFF721
:1017D000A9FE064641F28837D9F80000616800F09A
:1017E0000C00B0EB810F97D0FFF79CFE801BB84236
:1017F000F2D9032001B0BDE8F08300BF59F8041C02
:101800008907D4D5DCE700BFD9F8002043F6BC3304
:10181000C2F34042C0F600039A5C4843B0FBF2F0CA
:10182000D9F8001043F6A432C1F30311C0F6000248
:10183000515C40F2080220FA01F140F20400C2F2C9
:1018400000000068C2F200021160FFF793FE002062
:1018500001B0BDE8F083000040F2080041F204014D
:10186000C2F20000C4F202010068096843F6B43213
:10187000C1F30221C0F60002515CC840704700006D
:1018800040F2080041F20401C2F20000C4F2020179
:101890000068096843F6B432C1F3C221C0F6000201
:1018A000515CC840704700002DE9F04182B000282B
:1018B00068D00446007841F20006C007C4F2020670
:1018C00025D0706800F00C0004281BD0706800F070
:1018D0000C00082802D17068C00313D46068002887
:1018E00000F06881B0F5A02F00F07C81B0F5803F5A
:1018F00000F07C81306820F480303060306820F463
:10190000802076E13068800301D56068D0B320780C
:10191000800718D5706810F00C0F07D0706800F0C1
:101920000C0008286ED17068C0036BD43068800743
:1019300002D52069012825D13068616920F0F800BE
:1019400040EAC1003060207800071FD420784007AB
:1019500032D4E56995B1706800F00C00082840F0B9
:101960008F80012D0ED07068216A00F480328A4287
:1019700008D1616A00F47010884203D1002002B0DF
:10198000BDE8F081012002B0BDE8F081A069002827
:1019900062D00020C4F242200121C0F88014FFF779
:1019A000C1FD0546706A800700F18C80FFF7BAFD23
:1019B000401B0228F6D92AE1F06910F0805808D1BE
:1019C000F06940F08050F061F06900F080500090C4
:1019D000009847F20007C4F200073868C00529D410
:1019E000386840F480703860FFF79CFD054600BF02
:1019F0003868C0051ED4FFF795FD401B6428F7D951
:101A000005E100BF2069002840F20000C4F2422036
:101A100000F0828001210160FFF784FD054600BFD0
:101A2000306880073FF588AFFFF77CFD401B022838
:101A3000F6D9ECE0E068002800F08080052800F08E
:101A40009780012800F09880306A20F00100306211
:101A5000306A20F0040092E00020C4F2422000210D
:101A6000C0F88014FFF75EFD054600BF706A80076E
:101A70007FF56CAFFFF756FD401B0228F6D9C6E094
:101A80000027C4F2422700203866FFF74BFD022DE5
:101A900005460BD13068800140F1BE80FFF742FD62
:101AA000401B02284FF00300F4D968E7306880013A
:101AB0007FF564AFFFF736FD401B02284FF00300AF
:101AC000F4D95CE740F20800C2F20000006844F676
:101AD000D351C1F26201A0FB0101480A019000BF8D
:101AE00000BF0198411E002801913FF42FAF00BFB5
:101AF0000198411E002801913FF428AF00BF0198D2
:101B0000411E002801913FF421AF00BF0198411E02
:101B100000280191E4D119E700210160FFF702FDDF
:101B2000054600BF306880077FF50DAFFFF7FAFC70
:101B3000401B02284FF00300F4D920E7306A20F060
:101B400001003062306A20F004003062FFF7EAFCE6
:101B5000054641F2883700BF306A800720D5FFF77D
:101B6000E1FC401BB8424FF00300F5D907E700BF86
:101B7000306A40F004003062306A40F001003062A8
:101B8000FFF7D0FC054641F2883700BF306A800776
:101B900006D4FFF7C7FC401BB842F7D937E000BFB7
:101BA000B8F1000F7FF4D5AEF06920F08050F061FD
:101BB000CFE600BF306820F480303060306820F419
:101BC00080203060FFF7AEFC054600BF3068800320
:101BD0007FF59DAEFFF7A6FC401B64284FF0030085
:101BE000F4D9CCE6306840F480203060306840F4AE
:101BF00080303060FFF796FC054600BF30688003F8
:101C00003FF585AEFFF78EFC401B6428F6D9032014
:101C100002B0BDE8F08100BF206AB0F5803F05D179
:101C20007168A26821F40031114371607168626AC1
:101C300021F4741110430843706001203866FFF7E7
:101C400071FC0446306880013FF598AEFFF76AFCEE
:101C5000001B02284FF00300F4D990E6411E00203B
:101C6000B0EB116F1CBF012070474EF21002CEF294
:101C7000000251604EF62351CEF20001F0230B70AA
:101C8000072190601160704770470000016844F6BA
:101C90000002C4F20002914218BF704740F2700186
:101CA000C2F2000110310B2200F0CCBBB0B582B003
:101CB000044600680168C368426901F02F05202DC1
:101CC00003F0200506D12DB1204602B0BDE8B0409A
:101CD00001F00EB85FEA017C1EBF02F0010E03F4B2
:101CE000907212EB0E0255D1226B012A05D111F030
:101CF000100218BF13F0100236D10A0622D513F0D5
:101D000080021FD094F84110212941D1A168B1F57A
:101D1000805F03D12169002900F07282216A4A1C88
:101D2000226209784160E18C01390A04E1842FD1F3
:101D3000C16821F08001C160C16841F04001C1600B
:101D400002B0B0BD490623D513F0400120D0C168D0
:101D500021F04001C1602021204684F8411002B0EA
:101D6000BDE8B04000F090BC0021019101680191F4
:101D70004168019101994169490600F18F80A18D67
:101D8000E28DE38D002B1CBF891A5FEA01420CD162
:101D900002B0B0BDCA0718BF13F4807240F038819A
:101DA0004A0700F13B8140E1206850E8030F2268B8
:101DB00020F4907042E80303DBB1206850E8030F81
:101DC000226820F4907042E8030393B1206850E841
:101DD000030F226820F4907042E803034BB120689F
:101DE00050E8030F226820F4907042E80303002BB0
:101DF000DAD1206850E8050F226820F0010042E89F
:101E00000503DBB1206850E8050F226820F00100CF
:101E100042E8050393B1206850E8050F226820F0DE
:101E2000010042E805034BB1206850E8050F226825
:101E300020F0010042E80503002BDAD1202084F8CD
:101E4000420000202063206850E8030F226820F041
:101E5000100042E80303DBB1206850E8030F22685A
:101E600020F0100042E8030393B1206850E8030F0C
:101E7000226820F0100042E803034BB1206850E8CC
:101E8000030F226820F0100042E80303002BDAD190
:101E9000022289B220466263B4E000BFE16B0A68A7
:101EA000526893B2002B3FF473AFA58DAB42BFF4E1
:101EB0006FAFE2858969202900F09D8050E8030F0B
:101EC000216820F4807041E80302EAB1206850E8FC
:101ED000030F216820F4807041E80302A2B120685A
:101EE00050E8030F216820F4807041E803025AB1E2
:101EF000206850E8030F216820F4807041E8030255
:101F000012B12068DAE700BF206850E8050F2168A9
:101F100020F0010041E80502DAB1206850E8050F21
:101F2000216820F0010041E8050292B1206850E8E4
:101F3000050F216820F0010041E805024AB1206840
:101F400050E8050F216820F0010041E80502002A51
:101F5000DAD1206850E8050F216820F0400041E800
:101F60000502DAB1206850E8050F216820F0400032
:101F700041E8050292B1206850E8050F216820F081
:101F8000400041E805024AB1206850E8050F216889
:101F900020F0400041E80502002ADAD1202084F830
:101FA000420000202063206850E8030F216820F0E1
:101FB000100041E80302DAB1206850E8030F2168FD
:101FC00020F0100041E8030292B1206850E8030FAE
:101FD000216820F0100041E803024AB1206850E86F
:101FE000030F216820F0100041E80302002ADAD133
:101FF000E06BFFF7F5F802206063A08DE18D401AD9
:1020000081B2204602B0BDE8B040FFF73DBE00BF40
:10201000626C42F0010262644A0706D5BEF1000F0D
:1020200003D0626C42F0020262648A0706D5BEF1F8
:10203000000F03D0626C42F004026264BCF1000F36
:1020400006D555EA0E0203D0626C42F008026264C3
:10205000626C002A3FF49CAE11F0200118BF002DE5
:1020600003D0204600F044FE20684169626C01F014
:10207000400102F00802891800F0A28050E8030F26
:10208000216820F4907041E80302C2B3206850E850
:10209000030F216820F4907041E803027AB32068AE
:1020A00050E8030F216820F4907041E8030232B336
:1020B000206850E8030F216820F4907041E8030283
:1020C000EAB12068DAE700BF206850E8050F216810
:1020D00020F0010041E80502DAB1206850E8050F60
:1020E000216820F0010041E8050292B1206850E823
:1020F000050F216820F0010041E805024AB120687F
:1021000050E8050F216820F0010041E80502002A8F
:10211000DAD1206B012824D1206850E8030F216810
:1021200020F0100041E80302DAB1206850E8030F04
:10213000216820F0100041E8030292B1206850E8C5
:10214000030F216820F0100041E803024AB1206823
:1021500050E8030F216820F0100041E80302002A34
:10216000DAD1202084F842000020206320684169F1
:1021700049063FD550E8050F216820F0400041E8AE
:1021800005022AB3206850E8050F216820F04000BE
:1021900041E80502E2B1206850E8050F216820F00F
:1021A000400041E805029AB1206850E8050F216817
:1021B00020F0400041E8050252B12068DAE700BF94
:1021C0002046FFF763FD0020606402B0B0BD00BF91
:1021D000E06B78B142F6E541C0F600014163FFF7DC
:1021E00023F800283FF4D4ADE06B416B02B0BDE8AA
:1021F000B0400847204602B0BDE8B040FFF746BDFA
:10220000216A31F8022B6FF35F22426021628AE576
:10221000002804BF0120704710B5044690F8410023
:1022200028B9002084F84000204600F061F82420FE
:1022300084F841002068D4E90212C36823F40053F3
:10224000C360036923F440531A430261D4E90423B1
:102250001143C268194341F20C639A431143C160B0
:102260004169A26921F44071114343F60002C4F2AE
:1022700001029042416103D0FFF7EEFA02E000BF95
:10228000FFF7FEFA6268192148439100B0FBF1F0B4
:1022900048F21F51C5F2EB11A0FB01235A096FF060
:1022A000630302FB0300322303EB0010A0FB0101D8
:1022B000F02303EA5113206803EB0212C1F3431128
:1022C00011448160016921F490410161416921F06B
:1022D0002A014161C16841F40051C1600020202100
:1022E000606484F8411084F84210606310BD0000FF
:1022F000B0B586B0006844F20041C4F200018842E3
:102300004FF00001CDE90411CDE9021136D044F6B9
:102310000001C4F20001884258D043F60001C4F223
:102320000101884240F08C8041F21800C4F20200A2
:10233000016840F6000441F4804101600168C4F284
:10234000010401F4804101910199016841F0040107
:102350000160006802A900F00400019001984FF4A8
:102360000070029002200390032005902046FEF7A3
:10237000C9FF4FF480600290252552E041F2180019
:10238000C4F20200416840F6000441F400314160AB
:102390004168C4F2010401F400310191019901681E
:1023A00041F004010160006802A900F004000190FE
:1023B00001980420029002200390032005902046FB
:1023C000FEF7A0FF0820029026252AE041F218001F
:1023D000C4F20200416841F480214160416801F487
:1023E000802101910199016841F0080101600068B4
:1023F00002A900F00800019001984FF4806002905B
:10240000022003900320059040F60000C4F2010072
:1024100000F580642046FEF775FF4FF40060272525
:1024200002900020CDE9030002A92046FEF76AFFD2
:10243000284600210022FFF7F3F82846FFF7E0F8CE
:1024400006B0B0BD90F84230202B1CBF0220704770
:1024500000294FF0010318BF002A01D11846704728
:1024600000230363816222218285C285436480F850
:1024700042100169006819B1C16841F48071C160FE
:102480004169002341F001014161C16841F020012F
:10249000C1601846704700002DE9F041044600680D
:1024A00044F60001C4F20001884218BFBDE8F08183
:1024B00040F27005C2F20005B5F81300AF7D00BA16
:1024C0002E7E000C68802F706E7001F0A3FA40F22F
:1024D0000008C4F22018414601F0DAF96860384675
:1024E00001F098FA414601F0D3F9A860304601F0B6
:1024F00091FA414601F0CCF9E86000206861C5F826
:10250000170045F8100F204629460B22FFF79AFFC7
:1025100020B1BDE8F041FEF75DBE00BFBDE8F0812F
:102520002DE9F041044690F8410020281CBF02200C
:10253000BDE8F0810F4600294FF0010000F08280D5
:102540001646002A08BFBDE8F0814FF000082120A0
:102550001D46C4F8448084F84100FEF7E3FFA684DA
:10256000E684A1680646B1F5805F05D120690028A0
:1025700014BF3846B8460746E08CC8B1681C19D06D
:10258000002D61D1216807E017F8010B4860E08C4D
:102590000138E084E08C68B3086800064CD5002F51
:1025A000F2D138F8020B00276FF35F20EEE700BF8F
:1025B00021681FE0216802E00868000609D4086865
:1025C000000606D4086800065CBF08685FEA006081
:1025D000F2D51FB117F8010B05E000BF38F8020B68
:1025E00000276FF35F204860E08C0138E084E08CC6
:1025F0000028E4D1086840061CD4EDB1681C0FD156
:102600000868400616D40868400613D408684006D7
:1026100010D4086840064FF00000F1D50FE000BF6D
:10262000FEF780FF801BA84208D82068C1680068B8
:102630004006F5D5002002E0FEF774FF03202021BC
:1026400084F84110BDE8F081216800BF08680006E9
:1026500008D4FEF767FF801BA842EFD82168C8683E
:10266000F4E700BF17B117F8010B04E038F8020BCC
:1026700000276FF35F204860E08C0138E084E08C35
:102680000028E3D1B6E7000070470000FEE7000035
:102690002DE9F041B6B043F6F8310DF18808C0F6E7
:1026A000000140464E22FDF7D6FE9B480DF1500E2C
:1026B000139099A0071D8ECFD0E9056CD0E907458E
:1026C0008EE88E00189600F12407D0E90D608ECFB9
:1026D000CDE920609F481F970D909EA0071DCDE972
:1026E0001D23CDE91B518ECF4069CDE919C40DF1F1
:1026F000380C8CE88E009D4912909CA0071D01911A
:102700008ECF0DF1080ED0E9056CD0E907458EE8B3
:102710008E00C26AD0E909100696CDE9095140F24F
:10272000D41540F28C06C2F20005C2F20006CDE9D3
:102730000B0228463146FF22CDE907C4FFF782FE8F
:10274000284641464D224FF0FF33FFF7E9FE4FF494
:102750007A70FEF7C3FD43F6F431C0F6000130464F
:10276000FDF748FEE8B940F2D41440F28C0643F677
:10277000F437C2F2000422ADC2F20006C0F6000730
:10278000204629464D224FF0FF33FFF7C9FE4FF494
:10279000FA60FEF7A3FD30463946FDF72BFE002810
:1027A000EED040F2D410C2F2000013A93A224FF04A
:1027B000FF33FFF7B5FE4FF47A70FEF78FFD40F25E
:1027C0008C0043F6F431C2F20000C0F60001FDF7C0
:1027D00011FEF0B940F2D41440F28C0643F6F437FF
:1027E000C2F2000413ADC2F20006C0F6000700BF3B
:1027F000204629463A224FF0FF33FFF791FE4FF46F
:10280000FA60FEF76BFD30463946FDF7F3FD002810
:10281000EED040F2D410C2F200000DA915224FF004
:10282000FF33FFF77DFE4FF47A70FEF757FD40F25D
:102830008C0043F6F431C2F20000C0F60001FDF74F
:10284000D9FDF0B940F2D41440F28C0643F6F437C7
:10285000C2F200040DADC2F20006C0F6000700BFD0
:102860002046294615224FF0FF33FFF759FE4FF45B
:10287000FA60FEF733FD30463946FDF7BBFD002810
:10288000EED040F2D410C2F2000001A92E224FF087
:10289000FF33FFF745FE4FF44870FEF71FFD40F28F
:1028A0008C0043F6F431C2F20000C0F60001FDF7DF
:1028B000A1FDF0B940F2D41440F28C0643F6F4378F
:1028C000C2F2000401ADC2F20006C0F6000700BF6C
:1028D000204629462E224FF0FF33FFF721FE4FF40A
:1028E000FA60FEF7FBFC30463946FDF783FD002811
:1028F000EED040F28C04C2F200042046FF21FDF726
:10290000DCFD40F2D410C2F200002146FF22FFF7A6
:1029100099FD36B0BDE8F08141542B514D544F50D4
:10292000454E3D302C22696F742D61732D6D71748D
:10293000742E636E2D7368616E676861692E616CB9
:102940006979756E63732E636F6D222C313838335D
:102950000D0A000041542B514D54434F4E4E3D3013
:102960002C22434F4431220D0A00000041542B51C8
:102970004D545355423D302C312C222F6B317377FF
:102980006F68627A596A562F434F44312F757365C9
:10299000722F676574222C300D0A000070B584B068
:1029A00041F21800C4F20200016841F2000441F053
:1029B000100101600168C4F2010401F010010091EE
:1029C00000990168002241F02001016001684FF484
:1029D000005501F02001009100990168002641F0A6
:1029E00004010160016801F004010091009901688F
:1029F00041F00801016000684FF4005100F0080048
:102A0000009000982046FEF787FD0120CDE90106E1
:102A100002200390694620460095FEF773FC04B03F
:102A200070BD000080B540F28C1043F60001C2F288
:102A30000000C4F2010100234FF00C0C4FF4E1320E
:102A400080E80E00C0E90333C0E905C3C361FFF7A6
:102A5000DFFB002808BF80BDBDE88040FEF7BABBA1
:102A600080B540F2D41044F20041C2F20000C4F23A
:102A7000000100234FF00C0C4FF4E13280E80E000F
:102A8000C0E90333C0E905C3C361FFF7C1FB0028F8
:102A900008BF80BDBDE88040FEF79CBB80B540F21A
:102AA0001C2044F60001C2F20000C4F20001002321
:102AB0004FF00C0C4FF4E13280E80E00C0E9033314
:102AC000C0E905C3C361FFF7A3FB002808BF80BDB1
:102AD000BDE88040FEF77EBBFEE7000010B582B087
:102AE00040F20133ADF800300B0A4AF2010C8DF8C8
:102AF0000230130ACFF6FF7C8DF804300CF5855EAA
:102B0000CB058DF803108DF8052058BF4FF4855E76
:102B10008EEA51231FFA83FE8CEA5E04DB0708BFAE
:102B20004FEA5E0447F63F4303EA5403E40718BF45
:102B300083EA0C03C3F34E04DB0718BF84EA0C04DA
:102B4000C4F34E03E40718BF83EA0C03C3F34E0437
:102B5000DB0718BF84EA0C04C4F34E03E40718BF74
:102B600083EA0C03C3F34E04C9B2DB0718BF84EA3F
:102B70000C0461408BB28CEA5304C90708BF5C089F
:102B8000C4F34E01E30718BF81EA0C01C1F34E0301
:102B9000C90718BF83EA0C03C3F34E01DB0718BF54
:102BA00081EA0C01C1F34E03C90718BF83EA0C0385
:102BB000C3F34E01DB0718BF81EA0C01C1F34E03DA
:102BC000C90718BF83EA0C03C3F34E01DB0718BF24
:102BD00081EA0C0181EA12218BB28CEA5304C90705
:102BE00008BF5C08C4F34E01E30718BF81EA0C017B
:102BF000C1F34E03C90718BF83EA0C03C3F34E01A8
:102C0000DB0718BF81EA0C01C1F34E03C90718BFE7
:102C100083EA0C03C3F34E01DB0718BF81EA0C0102
:102C2000C1F34E03C90718BF83EA0C03C3F34E0177
:102C3000DB0718BF81EA0C01D2B251408AB28CEA9C
:102C40005203C90708BF5308C3F34E01DA0718BF80
:102C500081EA0C01C1F34E02C90718BF82EA0C02D7
:102C6000C2F34E01D20718BF81EA0C01C1F34E0234
:102C7000C90718BF82EA0C02C2F34E01D20718BF7F
:102C800081EA0C01C1F34E02C90718BF82EA0C02A7
:102C9000C2F34E01D20718BF81EA0C01ADF806104D
:102CA000694608224FF0FF33FFF73AFC02B010BD2F
:102CB00080B540F27001C2F2000110310B22FFF723
:102CC000C1FB002808BF80BDBDE88040FEF782BA86
:102CD000FEE700007047000070470000FEF728BCC8
:102CE00070470000406A0021C185C184FEF7CEBF55
:102CF00081B090F84210222920D18368B3F5805F1B
:102D000008D10169002965D000F128010A6803682B
:102D10005B680AE0014651F8282F13B90369002BBC
:102D2000F5D003685B6803F07F0313700A68013213
:102D30000A60C18D01390A04C18501D001B0704714
:102D40000168CA6822F02002CA60CA6822F4807250
:102D5000CA604A6922F001024A61202280F84220BA
:102D600000224263036B012B3ED1026351E8031F33
:102D7000026821F0100142E803130168DBB151E859
:102D8000031F026821F0100142E80313016893B1A8
:102D900051E8031F026821F0100142E803130168A3
:102DA0004BB151E8031F026821F0100142E8031300
:102DB0000168002BDAD10A68D20606D500220092FB
:102DC0000A680092496800910099818D01B0FEF770
:102DD0005BBF00BF0168826A49686FF35F2122F818
:102DE000021B8262A5E700BF01B0FFF755BB0000E0
:102DF00040F28C10C2F20000FEF758BF40F2D4102F
:102E0000C2F20000FEF752BF40F21C20C2F20000E6
:102E1000FEF74CBFFEE700002DE9F04FFDB0824603
:102E200048489146049047A000F1040E88469EE869
:102E30006E500DF1140B046A8BE86E0000F1240350
:102E4000006B0ECB109040F2D41044F20047CDE955
:102E50000E23CDE90C41C2F2000004A933224FF049
:102E6000FF33C4F20007CDE90ACEFFF759FB4FF458
:102E70004870FEF733FA43F6D030C0F6000090E811
:102E80004E00D0E90454D0E906C00DF5867ECDE9A8
:102E900049C050468EE84E00CDE9475400F0CCFCC6
:102EA000834640468A4600F0C7FC064648460D4623
:102EB00000F0C2FCCDE900654BAD0C46029043A981
:102EC00028465A4653460394FDF794F92846FDF7E1
:102ED000A3FA11AE044682B230462946FDF7BBFA8A
:102EE000E2B20020B05440F2D410C2F200003146E9
:102EF0004FF0FF33FFF714FB3868400609D43868F9
:102F000040065CBF38685FEA406002D4386840061B
:102F1000F2D51A2078604FF44870FEF7DFF940F2DE
:102F20008C04C2F200042046FF21FDF7C6FA40F2ED
:102F3000D410C2F200002146FF22FFF783FA7DB0D1
:102F4000BDE8F08F41542B514D545055423D302C2B
:102F5000302C302C302C222F6B3173776F68627AD3
:102F6000596A562F434F44312F757365722F757010
:102F700064617465220D0A0090B0FEF7E7FA002440
:102F80000120CDE90B44CDE9094406900A904FF4A5
:102F9000E0104FF4803102250F9006A8CDE9071408
:102FA000CDE90D51FEF780FC20B1EFF3108072B631
:102FB000FEE700BF0F20CDE901054FF48060CDE9A9
:102FC000040401A802210394FEF766FB20B1EFF38D
:102FD000108072B6FEE700BFFFF7E0FCFFF722FDAE
:102FE000FFF73EFDFFF75AFDFDF7B2FFFFF750FB7D
:102FF00040F21C24C2F200042046FFF759FE40F2C2
:10300000740540F2780640F27C07C2F20005C2F275
:103010000006C2F2000700BF204600210322FFF78E
:103020005DFD3A6831682868FFF7F6FE4EF66020CD
:10303000FEF754F9F0E75FEA400C08BF91F0000F8B
:103040004FEA8C234FEAC12243EA51514FEA1C5008
:1030500018BF00F5F0404FEA300018BF41F00041C2
:103060005FEA6C5C00F02980BCF1FF3F08BF40F0D4
:1030700080407047130C06BF12044FF0100C4FF045
:10308000000C130E04BF12020CF1080C130F04BF46
:1030900012010CF1040C930F04BF92000CF1020C0E
:1030A000D30F04BF52000CF1010C11464FF0000287
:1030B000A0F11F00A0EB0C00704711F0004F08BFFB
:1030C000704731F000413FF4D5AF0B0C06BF090447
:1030D0004FF0100C4FF0000C0B0E04BF09020CF166
:1030E000080C0B0F04BF09010CF1040C8B0F04BF7B
:1030F00089000CF1020CCB0F04BF49000CF1010C4C
:10310000CCF1200322FA03F341EA030102FA0CF2A4
:10311000A0EB0C0000F101007047000023F07F4796
:1031200020F07F4C80EA030000F00040ACEB070386
:1031300003F57C5303F1FF032DE9804909B44FEAFD
:10314000144324EA03484FEA154B25EA0B4E0FF2CD
:10315000042606EB13273E7803FB0667C7F5000736
:1031600007FB06F64FEAD64606F102064FEA543749
:1031700007FB066CCCF1005C4FEA1C472CEA074CBD
:103180000CFB06F507FB06F404EB15464FEA961612
:1031900049085FEA320234BF00204FF000404FEA96
:1031A000D13706FB07FC4FEA1C4C0CFB0BF7D21B7C
:1031B00003FB0CF761EB07010CFB0EF7B0EB0740CC
:1031C00072EB17420CFB08F734BFA2EB0742B2EBDD
:1031D000074261EB17414FEA0C444FEA910706FBA7
:1031E00007FC4FEA1C4C0CFB0BF7B0EBC74072EB33
:1031F000573203FB0CF734BFA2EBC742B2EBC74216
:1032000061EB57310CFB0EF7B0EBC70072EB577256
:103210000CFB08F734BFA2EBC702B2EBC70261EBAD
:1032200057714FEA816141EA92114FEA826242EAA4
:1032300090124FEA806004EBCC04039F4FEAD13731
:1032400006FB07FC4FEA1C4C0CFB0BF7D21B03FBE5
:103250000CF761EB07010CFB0EF7B0EB074072EBCC
:1032600017420CFB08F734BFA2EB0742B2EB074250
:1032700061EB17414FEA8C5504EB9C244FEA910710
:1032800006FB07FC4FEA1C4C0CFB0BF7B0EBC740EE
:1032900072EB573203FB0CF734BFA2EBC742B2EB21
:1032A000C74261EB57310CFB0EF7B0EBC70072EB76
:1032B00057720CFB08F734BFA2EBC702B2EBC70290
:1032C00061EB57714FEA816141EA92114FEA8262E4
:1032D00042EA90124FEA806015EB4C2544F100045D
:1032E0004FEAD13706FB07FC4FEA1C4C0CFB0BF7EF
:1032F000D21B03FB0CF761EB07010CFB0EF7B0EBE5
:10330000074072EB17420CFB08F734BFA2EB0742F1
:10331000B2EB074261EB17414FEA813141EA92413A
:103320004FEA823242EA90424FEA80304FEA0C760E
:1033300015EB1C1544F1000448EA03434EEA0B4820
:103340004FF0000EB2EB080C71EB030724BF62468E
:1033500039464EEB0E0E4FF0000B0018524149411A
:103360004BEB0B0BB2EB080C71EB03077BF1000B83
:1033700024BF624639464EEB0E0E4FF0000B00188C
:10338000524149414BEB0B0BB2EB080C71EB0307BD
:103390007BF1000B24BF624639464EEB0E0E51EA1C
:1033A000020718BF46F0010616EB0E7655F1000233
:1033B00054F1000103D5BDE88901BDE80088BDE8EE
:1033C0008901BDE80048B619524141EB0101A3F162
:1033D0000103704780807F7E7D7C7B7A7978777669
:1033E00076757473727171706F6E6E6D6C6C6B6AE2
:1033F0006A69686867666665646463636261616080
:10340000605F5F5E5E5D5D5C5C5B5B5A5A595958FC
:103410005857575656555555545453535252525166
:10342000515050504F4F4F4E4E4D4D4D4C4C4C4BBC
:103430004B4B4A4A4A494949484848474747474603
:10344000464645454544444444434343434242423F
:10345000424141419C46002B30D477002BD04FEAAB
:1034600037071CB503B44FF010004FF01001BAF14C
:10347000000F06D0BCF1000FDCBF40F0080040F0A8
:1034800008014FF000000FBCBDE810400BF1010B2C
:10349000BBF1010F08BF5FEA170722BF12F101025B
:1034A00011F101014FF0004143F1000300F0004031
:1034B00043EA00007047F9D35708D0E746EA0646CA
:1034C0004FEA164613F1400F1FDD13F1200FDFBF47
:1034D00016430A46002120335B42BED0C3F12007C9
:1034E00046EA06464FEA164602FA07F746EA070694
:1034F00022FA03F2C3F1200701FA07F742EA0702B2
:1035000021FA03F14FF00003A7E746EA020646EA74
:1035100006464FEA164646EA0106BCBF46EA06469C
:10352000360C4FF000034FF000024FF0000194E71B
:103530002DE9804C70B49A46934691E8380007C84C
:1035400031EA400C48BF34EA430C03D5FFF7E6FDEF
:10355000FFF780FFF0BCBDE8008C2DE9804C70B413
:103560009A46934691E8380007C810F0804F08BF8C
:1035700013F0804F03D100F005F8FFF76BFFF0BCAC
:10358000BDE8008C20F07F4723F07F4C80EA0300E9
:1035900000F0004007EB0C03A3F57C53A3F1FE03FE
:1035A00092F0000F00F0B38095F0000F00F07780EC
:1035B0002DE901494FEA114021EA00484FEA14463B
:1035C00024EA064700FB06FC08FB06F607FB08F8A2
:1035D00018EB06484CEB164C00FB07F718EB0748B6
:1035E0004CEB17404FEA124B22EA0B4E4FEA1546BE
:1035F00025EA06470BFB06FC0EFB06F607FB0EFE54
:103600001EEB064E4CEB164C0BFB07F71EEB074E62
:103610004CEB174B18EB0B0840F1000018EB0E0BAE
:1036200058EB000840F100008F1A4FF000014FF0F6
:1036300000063CBFC943661B14BFB5EB040C002158
:103640003CBFC943F61B4FEA174427EA04454FEA3B
:103650001C472CEA074C04FB076205FB07F70CFB31
:1036600005F616EB074642EB174204FB0CFC16EB83
:103670000C4642EB1C421BEB060658EB0202414192
:103680004EEA8E0E46EA9E0601D5BDE80189B619BE
:10369000524141EB0101A3F10103BDE801894FEA69
:1036A000144524EA05464FEA114721EA074C05FB79
:1036B00007F406FB07F70CFB06F111EB074144EB9F
:1036C000174405FB0CFC11EB0C4144EB1C444FEA86
:1036D000124722EA074C05FB07F206FB07F70CFB33
:1036E00006F616EB074642EB174205FB0CFC16EB01
:1036F0000C4642EB1C456A1854F1000148BF704764
:10370000B619524141EB0101A3F10103704795F055
:10371000000F37D04FEA114221EA02464FEA144720
:1037200024EA074C02FB07F106FB07F70CFB06F443
:1037300014EB074441EB174102FB0CFC14EB0C4467
:1037400041EB1C414FEA154725EA074C02FB07F500
:1037500006FB07F70CFB06F616EB074645EB17458D
:1037600002FB0CFC16EB0C4645EB1C42121951F106
:10377000000148BF7047B619524141EB0101A3F166
:10378000010370474FEA144524EA05464FEA114702
:1037900021EA074C05FB07F106FB07F70CFB06F2D5
:1037A00012EB074241EB174105FB0CFC12EB0C42FC
:1037B00051EB1C414FF0000648BF7047921841EB97
:1037C0000101A3F101037047490050EAC12018BF6D
:1037D00004204A0D18BF40F0010040F2FF72B2EB26
:1037E000515F08BF40F00200012808BF0520704764
:1037F00030380A2801D201207047002070470000AD
:1038000010B500290AD00878002807D00548784468
:10381000FDF756FB002801D0002010BD0248784477
:1038200010BD00005A040000520400000808A0F572
:1038300000114FEA3101704743004FEAD30C4FEAC1
:103840003C0C43401FBF40070CF1605113F0FE4F8A
:1038500070471CF0006F03D10CF00041002070474E
:103860000CF0004343EA507040EACC0010B500F081
:10387000E4F800BF000000924FEA0001FFF7D6BF56
:103880004FF00041A1F500214FF00000704700000B
:103890004FF47F0C1CEAD0121EBF1CEAD11392EA2F
:1038A0000C0F93EA0C0F00F0858090EA010F48BFDF
:1038B00042F4807240F4000C41F400002CF07F418F
:1038C00020F07F4000B5A2EB030281420FF2081CFA
:1038D000ACEB504E9EF800E0C0F100004FEA4E0EF7
:1038E00000FB0EFC38BF49004FEA2C1C0CFB0EF30A
:1038F0004FEACE1E0EEB635E4FEA112C0EFB0CFC62
:103900004FEAC1214FEA1C5300FB031102F5FA02F2
:103910004FEA112C0EFB0CFC4FEA01314FEADC4C54
:1039200000FB0C1142EB2242C14228BF09184CEBAC
:1039300003335DF804EB10EB410143EBC250B2F5E9
:103940007C0F38BF704729D512F0F00F1CBF00F173
:10395000C04000F0004070470081828384858687E4
:1039600088898B8C8D8E8F919293959697999A9C3E
:103970009D9FA0A2A3A5A7A8AAACAEB0B2B3B5B7AD
:10398000B9BCBEC0C2C5C7C9CCCED1D4D7D9DCDF83
:10399000E2E6E9ECF0F3F7FAFE0000004FEA400C33
:1039A0000CF1807CBCF17E4F28BF7047B0F1C04065
:1039B00000F089B80CEAD11390EA010F48BF42F435
:1039C0008072624538BF634507D213F47F0F16D06B
:1039D00080EA010000F00040704710B500F02DF8BB
:1039E000097EFC3E00F005B880EA010000F00040CE
:1039F000704780EA010000F0004000F064B812F463
:103A00007F0F04BF0248704780EA010000F05BB8F6
:103A10000000C07FB0FA80F310FA03F2C3F19D03F7
:103A20000AD0D90501EB1220530638BF704700F1C8
:103A3000010008BF20F0010070470EF1020E2EF0C9
:103A4000030E5EF8044B244204D44FEA4102B2F163
:103A50007F4F11D84FEA4003B3F17F4F0CD80ED1FE
:103A60004FEAD07C0CEB4C0C0CF1020CB2F17F4F06
:103A700008BF4CEBD17C04E04FF0080C01E04FEAAA
:103A8000D17C0CEB4C0324FA03F404F00704B4F1EA
:103A9000040C06D20EEB840CBDE810404CF0010C77
:103AA0006047DFE80CF0070802024FF00040A0F585
:103AB000800010BD0846420018BFD2F1807288BF56
:103AC00000F0004010BDFF2141EAD050C005704712
:103AD000FCF7F5BDFCF72ABF040000080000000059
:103AE000000000020001000010303132333435365E
:103AF000373839616263646566787000303132331B
:103B00003435363738394142434445465850000031
:103B100002400000000000A000000000054000007E
:103B2000000000C8000000000C4000000000409CA5
:103B300000000000194000000020BCBE0000000092
:103B400034400000BFC91B8E00000004B5400000D7
:103B5000504BCFD06607E2CF010000006C4100005F
:103B60003E8251AADFEEA73401000000D9420000D6
:103B7000DCB5A0E23A301F97FFFFFFFFB44500001D
:103B8000FD25A0C8E9A3C14FFFFFFFFFFF3F0000D5
:103B90000000008000000000FF3F000000000080E7
:103BA000000000000000000000000000010203040B
:103BB00006070809000000000102030401020203D5
:103BC0000405060708090A0B0C0D0E0F1010000063
:103BD0007B434F443A252E32662C54454D503A25AE
:103BE0002E32662C4E54553A252E32667D0000004A
:103BF000343630004F4B000041542B514D54434656
:103C0000473D414C49415554482C302C226B31736F
:103C1000776F68627A596A56222C22434F443122C8
:103C20002C22663832303230666635336531646452
:103C3000376166643130633431653063303834382D
:103C40003236220D0A000000883C000800000020E7
:103C50001000000028010008983C00081000002017
:103C600058080000440100081C0000004300000048
:103C7000F8FFFFFF0C0000000E0000000F00000026
:103C80002E000000000000000100000010000000F5
:083C900000127A0000000000A0
:04000005080000ED02
:00000001FF
