:020000040800F2
:1000000058080020B101000875300008812B000855
:10001000E92C00085D150008B93100080000000057
:100020000000000000000000000000007D3000081B
:1000300061150008000000007930000881300008D8
:10004000CB010008CB010008CB010008CB01000860
:10005000CB010008CB010008CB010008CB01000850
:10006000CB010008CB010008CB010008CB01000840
:10007000CB010008CB010008CB010008CB01000830
:10008000CB010008CB010008CB010008CB01000820
:10009000CB010008CB010008CB010008CB01000810
:1000A000CB010008CB010008CB010008CB01000800
:1000B000CB010008CB010008CB010008CB010008F0
:1000C000CB010008CB010008CB010008CB010008E0
:1000D000CB01000895310008A1310008AD310008BE
:1000E000CB010008CB010008CB01000800F002F8AA
:1000F00000F04FF80AA090E8000C82448344AAF173
:100100000107DA4501D100F044F8AFF2090EBAE870
:100110000F0013F0010F18BFFB1A43F0010318473B
:10012000CC3C0000EC3C0000103A24BF78C878C1F9
:10013000FAD8520724BF30C830C144BF04680C60ED
:10014000704700000023002400250026103A28BF35
:1001500078C1FBD8520728BF30C148BF0B60704739
:10016000662903F0D285002070471FB59DE8030083
:1001700001F08EF800F0A4FB04000020002103F041
:1001800057FCE06000F08EFD1FBD10B500F0F3FDE0
:1001900010BD00F05BFE1146FFF7E7FF03F00EF81D
:1001A00001F008F803B4FFF7F0FF03BC01F042F9D7
:1001B0000948804709480047FEE7FEE7FEE7FEE7FB
:1001C000FEE7FEE7FEE7FEE7FEE7FEE70448054937
:1001D000054A064B7047000085300008ED00000816
:1001E000580200205808002058040020580400201D
:1001F0000FB4044910B503AA029800F04FFB10BCDD
:100200005DF814FB6C0000202DE9F05F8946044680
:100210004FF0000ADFF874B1FB44C0F820A020467C
:10022000E1688847002874D0252806D0D4E9012148
:100230009047206A401C2062F1E700265F46204676
:10024000E16888472028054607DB312D05D278195B
:1002500010F8200C08B10643F1E7B00701D526F0ED
:100260000406C4F81CA00027C4F818A02A2D09D041
:10027000284603F0C7FB38B304EB8708303DC8F8C5
:10028000185019E059F8041B204604EB87029161CD
:10029000E1688847012F054618D1E069002820DA77
:1002A00026F020061DE0D8F8180000EB800005EBD2
:1002B00040003038C8F818002046E16888470546F5
:1002C00003F0A0FB0028EED1012F0AD02E2D08D17B
:1002D0002046E16888477F1C0546022F46F020062D
:1002E000C4DBA069002803DA404246F00106A061A1
:1002F000F00701D026F010066C2D0BD0682D09D028
:100300004C2D39D06A2D35D0742D35D07A2D33D07F
:1003100016E038E0E1682F4620468847B842054697
:1003200009D16C2F26D04FF48060E1680643204647
:100330008847054604E06C2F1AD04FF480700643BE
:100340000DB3A5F14100192802D8203546F4006606
:100350004A462946204626604E46FFF701FF80B1F7
:1003600001280BD0F61D26F0070000F1080956E71A
:100370004020E4E78020D8E70020D6E706F1040912
:100380004DE7284652E7206ABDE8F09FF23A0000A8
:1003900010B5044603E003F03CFB401C09D014F800
:1003A000010B05490028F6D1BDE810400A2003F0F2
:1003B00030BB4FF0FF3010BD6C00002010B5431C67
:1003C00002E010F8011B71B18107FAD14FF0013240
:1003D00002C88C1A8C4314EAC211F9D0C01A0A065A
:1003E00003D0C01E10BDC01A10BD0A0401D0801E6B
:1003F00010BD0902FCD0401E10BD4FF0000200B538
:10040000134694469646203922BFA0E80C50A0E837
:100410000C50B1F12001BFF4F7AF090728BFA0E8E5
:100420000C5048BF0CC05DF804EB890028BF40F8B1
:10043000042B08BF704748BF20F8022B11F0804FF3
:1004400018BF00F8012B70477047704770472DE9BF
:10045000FF4F0C461E464FF0FF378BB0D2E900012C
:10046000DDF860800A908A46C1F30A5505B93D4619
:10047000002108464FF00000BAF1000F00F44000E0
:1004800005DA00EB80004FF4400101EA50004FEA2A
:100490009059B9F1010F00DDB9460A9850EA4A00B7
:1004A0000ED044F61050A5F2FF3545432F14B8F195
:1004B000000F1ED07542291E1EDDC9F100021CE08E
:1004C000B8F1010F4FF0000001D0302103E0F243FA
:1004D00005E02154401CB042FBDB304600220021E5
:1004E00021540B99C1F80880C1E900200FB0BDE884
:1004F000F08FBD1B6D1CDEE74A4600DA694206A894
:1005000000F068FA06AB93E8070003AB83E8070046
:1005100050460A9902F099FE8DE80700A0F50050B8
:100520001F3800900398002D0ADD42F21F014A4651
:100530000844002303A90390684603F003F909E087
:10054000A0F500504A461F38002303A903906846CF
:1005500003F00DF98DE807000004000C03D04FF004
:10056000FF30410800E01046B8F1000F03D0002230
:10057000009215461EE0751E05D400F0A5F9303234
:1005800062556D1EF9D5B3460122084302D0002200
:100590007F1C04E02078302801D100227F1E002A31
:1005A000099784D01DE0112D07DA00F08DF9303263
:1005B00062556D1C50EA0102F5D1084302D0009843
:1005C000C8B10EE00021681E05E0235C625C635444
:1005D0002254401E491C8142F7DBAB46A81B401E3B
:1005E0000990002004F80B000B98099AC0F80880C5
:1005F000C0E9002B7AE711264FF0000857E72DE9F4
:10060000F04F88460446D21D22F0070191B0D1E98F
:100610000001CDE90A0103F0E1F902460B98C00F91
:1006200001D02D2007E02068810701D52B2002E0B2
:10063000202101EAC000032A099001D0072A05DB26
:1006400003464146204600F085F90BE120788006FC
:1006500001D5E06900E00620B8F1650F814606D0BB
:10066000B8F1660F18D0B8F1670F70D131E00020F3
:10067000B9F1110F009001DB112301E009F1010331
:100680000AAA01A90CA8FFF7E2FEDDE90C7000261A
:1006900009F10105834647E001204B4600904FF0E9
:1006A00000470AAA01A90CA8FFF7D1FEDDE90DB0A9
:1006B0000C995D46002610B909F101000D18B9EB3F
:1006C000050003D4C0F1FF3609F10105A5EB0900CF
:1006D0002BE0B9F1010F01DA4FF001090020B9F167
:1006E000110F0090484601DD112300E003460AAADD
:1006F00001A90CA8FFF7ABFEDDE90C704D46002602
:100700008346207800070AD4AB4500DA5D4601A88D
:10071000012D04DD411911F8011C302907D04F4586
:1007200002DA17F1040F04DA012082460FE06D1E91
:10073000EEE7002F02DCED1B3E4403E0781CA842EC
:1007400000DD7D1CB81B00F1010A4FF00047207846
:10075000000703D4AA4501DB4FF0FF3A0021B7F1AF
:10076000004F0DF143088DF8431024D002202B23B5
:10077000002F01DA7F422D230A21021EA0F1010081
:1007800000DC5FB197FBF1FC97FBF1F201FB1C7CF5
:1007900017460CF1300C08F801CDEEE7A8F1010086
:1007A00003702188090501D5452100E06521A0F1EC
:1007B000010800F8011C09980FA9A1EB0807FF1D0B
:1007C00000B10120411901EBEA70A1693844081A0F
:1007D000401EA0612078C00602D42046AFF30080FE
:1007E000099828B1D4E901219047206A401C206271
:1007F0002078C00622D52046AFF300801EE0002EF0
:1008000004DBB34502DD01A8805D00E03020D4E9BF
:1008100001219047206A401C2062761CAAF1010049
:100820005FEA000A0AD100F04BF8C0680168405C3A
:10083000D4E901219047206A401C2062281EA5F1BE
:100840000105DCDC07E0D4E9012118F8010B904731
:10085000206A401C2062381EA7F10107F3DC204605
:10086000AFF30080032011B041E6000001694A1C8B
:1008700002610878704700B58FB0CDE901310021E1
:10088000059105497944CDE9031011466846FFF703
:10089000BBFC0FB000BD0000E5FFFFFF074B70B5CC
:1008A0000D467B44FFF7E7FF0446284600F004F9B5
:1008B00010B14FF0FF3070BD204670BD6D310000AB
:1008C000004870473401002030B5B0F10A0271F1E0
:1008D00000034FEA900E4EEA817EB0EB0E0061EB12
:1008E00091014FEA101E4EEA017E10EB0E0041EB23
:1008F00011114FEA102E4EEA016E10EB0E0041EB83
:1009000011214FEA104E4EEA014E10EB0E0041EB62
:100910001141401841F100014FEAD00040EA417016
:100920004FEAD1014FEA810444EA907410EB80054C
:1009300044EB01046D1944EB0404521BA3414FF036
:10094000000348BF0A3200D530BD401C41F1000110
:1009500030BD00002DE9F0411F4604460326016822
:10096000072A01F4006004DB08B116A505E016A50E
:1009700003E008B115A500E015A521F010002060E6
:10098000A069C01EA0610FB1401EA0612046AFF358
:1009900000804FB1D4E9012138469047206A401CBD
:1009A0002062C01C206206E0206AFAE7D4E9012137
:1009B00015F8010B9047761EF8D22046AFF3008061
:1009C000BDE8F0814E414E006E616E00494E46001A
:1009D000696E66002DE9F047814616468AB03548B3
:1009E00078440DC88DE80D0032487844801C03AC73
:1009F0000DC884E80D0041F69B300844372190FB78
:100A0000F1F290FBF1F5A5F1800501FB12041B3C0E
:100A100002D56442012000E00020DFF898A0804663
:100A20000027FA44AAF1BE0A0EE0E0070AD03246D7
:100A3000684607EB470101230AEB810102F097FEAC
:100A40008DE8070064107F1C002CEED1194F7F4405
:100A5000AE3F19E0E80715D007EB04100DF1180AB6
:100A600090E80E008AE80E00C068F04201D19819A3
:100A700008903246012306A903A802F078FE03ABD2
:100A800083E807006D10641C002DE3D14FF00103D3
:100A900032466946B8F1000F03A802D002F052FEB8
:100AA00001E002F064FEC9E90001C9F808200AB0BB
:100AB000BDE8F087B8330000007B00F0800070478D
:100AC0002DE9F05F054617460C46C86820F4201053
:100AD00040F48000C860800602D5084600F0ABFAFA
:100AE000E06841F282014FF0FF3A0140022903D051
:100AF000204600F049FAB9E000F42041B1F5004F7A
:100B00000FD1C00306D56168E06A884200D8084664
:100B1000606006E02069E0626060606900F08BF967
:100B2000A061A0680022EEB200280DDAE1688B0512
:100B30000AD4C043A06041F490302260E060606855
:100B4000411C61600670AAE0E0689146226040F4B2
:100B50000050E060206978BB606900F05EF904F144
:100B600024054FF00108A8B1A08910F4407F08D0F7
:100B7000E06900F090F9206118B1E06840F400608D
:100B800017E0C4F81C802561E06820F4407040F450
:100B900080600EE0E06900F07EF900282061F0D06E
:100BA000E06840F4006010F4407FE06002D140F45F
:100BB0008070E06020696060E06825696FF0010B7B
:100BC000C1051ED56168E06A884200D80846411B0D
:100BD00004D02246284600F0E1F9E8BB1FB1E562E7
:100BE000C4E9015959E0681CE0626060E069401E98
:100BF000A060E06840F48030E06030462E70BDE8D0
:100C0000F09F17B100F480320AE06068411C616017
:100C10000670E0680A2E40F48030E06006D00022C2
:100C2000E16A6068814203D90B4602E00122F7E7DE
:100C30000346B4F80CC05B1B5FEA4C5C04D4D4F8E8
:100C40001CC09C4500DD02B3814200D80146002B48
:100C5000A1EB0008E56200E008E0C4E9015907DD06
:100C600022461946284600F099F908B15046C6E7D1
:100C7000B8F1000F09D0A169E5626560A1EB080039
:100C8000A061E06840F01000E06047B16168A069D1
:100C9000E562491B08446560A0615846AFE73046ED
:100CA000ADE7000010B542485421FFF7A6FB4148CC
:100CB0005421FFF7A2FB40485421FFF79EFB3F4918
:100CC0003B483C4A3F4B08603D490A603A4919603D
:100CD000531C0365481C1065012008653B48344AD5
:100CE00039A1784400F0C8F920B9384878440A3866
:100CF00000F069FA37482F4A35A1784400F0BCF972
:100D000020B9344878440A3800F05DFA32482A4A5B
:100D10002FA1784400F0B0F920B92F4878440A3860
:100D200000F051FA40232248DC000021224600F066
:100D300008F920B125487844543800F044FA1D4899
:100D400022464023002100F0FCF820B121487844DD
:100D5000543800F038FA184822461023002100F0D9
:100D6000F0F8002806D01C487844BDE810405638FA
:100D700000F029BA10BD104870B5006D20F00104D4
:100D80000B4800F0F1F90B4800F0EEF90A4800F0CA
:100D9000EBF909E0206D20F00105204600F0E4F9B0
:100DA000204600F0A7F82C46002CF3D170BD0000BF
:100DB000180000206C000020C0000020000000206F
:100DC000040000200800002072000000CE30000067
:100DD00077000000BA300000A63000000EB5CDE963
:100DE0000001FFF7EBFA029069460120ABBE0EBD91
:100DF00008B5694600900220ABBE08BD1FB58DE85E
:100E0000070069460520ABBE04B010BD1FB58DE8D4
:100E10000F0069460620ABBEF6E708B569460090AC
:100E20000920ABBE08BD1CB5CDE9000169460A200A
:100E3000ABBE1CBD704708B5694600900C20ABBE28
:100E400008BD000000487047140100207546FFF7F8
:100E5000F9FFAE4605006946534620F00700854677
:100E600018B020B5FFF7B2F9BDE820404FF00006FA
:100E70004FF000074FF000084FF0000BAC46ACE815
:100E8000C009ACE8C009ACE8C009ACE8C00921F071
:100E900007018D46704770B5064600F0DDF905681C
:100EA00006F10B0020F00704B4429CBF002070BD87
:100EB0002B466A68BAB11068A04210D304F1080149
:100EC00088423CBF5068586007D351681019416090
:100ED0001168091B016058601460101D70BD134635
:100EE0005268002AE7D12146284600F0BDF90028C3
:100EF000DED170BD70B50446051F00F0ADF9006885
:100F0000002C14BF446870BD002C18BFAC423CBF1D
:100F100020466468F8D301680A18AA4218BF4560E1
:100F200003D12A6805461144016028684119A1428D
:100F30001CBF6C6070BD61686960216808442860EE
:100F400070BD70B5C468A50713D0650211D4B2F5A1
:100F5000807F09D0B2F5007F06D0B2F5806F08D14E
:100F6000012300F1240106E05D1E6FF07F46B542CB
:100F700001D3012070BD0161C361416024F470613F
:100F80001143C160002070BDC16821F4001141F01F
:100F90008001C16000218160016070472DE9F04748
:100FA000814614460E464FF0FF383248D5685769DF
:100FB000054209D03846A169FFF735FF002811DB4B
:100FC0002C48C0430540E5602B463246494638462A
:100FD000FFF714FFA16920F00042B21A1144002863
:100FE000A16103D02046FFF7CFFF4046BDE8F08760
:100FF00070B504460569C06A6168884200D8084631
:10100000E16821F42011E160C90312D5A84208D09B
:101010002246411B2846FFF7C1FF10B14FF0FF30B9
:1010200070BD0020E562C4E90150E06820F4803022
:10103000E060002070BD10B50446C06820F02000BC
:10104000E060A16AA06988420DD02046FFF7D0FF7A
:10105000E06820F4405040F01000E060A06AA06119
:101060002069E062606044F24001E0688843E0602B
:1010700010BD0000100002002DE9F0410C4616469C
:10108000070047D0104600F06FF82078611C6128F7
:101090000AD0722802D077283CD102E00125002432
:1010A00005E00225042402E0082448F2020511F8B4
:1010B000010B2B2806D0622809D011F8010C7428E6
:1010C0000AD00BE045F0030544F00204EFE745F0D9
:1010D000040544F00104EAE744F0100438462146D0
:1010E000FFF77CFE411C15D00021316171604FF487
:1010F0000071F560F1617061200704D5304602226D
:10110000002100F0FBF8306D40F001003065304602
:10111000BDE8F0810020FBE72DE9F0410D460646D1
:10112000104C206DC10704D0410804D020F0010408
:10113000F7E722460EE05420FFF7ADFE07000ED081
:10114000206D47F001010843542120653846FFF720
:1011500054F93A4629463046BDE8F0418CE7002074
:10116000D6E70000180000202DE9F04704464FF0B4
:1011700000094FF0FF37C568D4E90486A80707D0F7
:101180002046FFF735FF3046FFF732FE002802DA2F
:101190003846BDE8F087280502D54046FFF7AAFE8D
:1011A0004C212046FFF729F9206D20F00100206531
:1011B0004846EEE710B50446AFF300802046BDE890
:1011C0001040FEF7EFBF10B500F01AF9BDE810406F
:1011D00000F010B94FF0013C50F8042B51F8043BDB
:1011E0009A4221D1A2EB0C03934313EACC1317D1FB
:1011F00050F8042B51F8043B9A4215D1A2EB0C0392
:10120000934313EACC130BD150F8042B51F8043B51
:101210009A4209D1A2EB0C03934313EACC13DBD01F
:101220004FF00000704700BFD01A01BAB1FA81F147
:1012300001F0180122FA01F0CB40DBB2C0B2C01AB3
:10124000C1F120012CFA01F3D11A914311EAC31123
:10125000E6D1704770470000004870471C0100202D
:10126000704770477047704738B504460A460020FB
:101270006946AFF30080002808BF38BD02460099D8
:10128000204600F0DDF8012038BD012000F02CB927
:10129000F8B5AFF30080054600200C46102000BFD3
:1012A0000646A819A0420DD9324669460020AFF380
:1012B0000080070008BF00F017F90098A04218BF8F
:1012C0000546C419FFF7C8FF05600746F01D20F06A
:1012D00007004619284600F00AF8B44208BFF8BDD6
:1012E000A21B31463868BDE8F84000F0A9B80021DB
:1012F0000160C0E901107047102070472DE9F041EE
:10130000044616460D464769007B80072ED03846B6
:10131000FFF783FD50BB3EB3012E02D0022E25D134
:1013200004E0204600F0A6F805441DE03846FFF72B
:1013300082FDE168002841F01001E16005DA2046F5
:10134000FFF722FE0120BDE8F081C9030BD56268DA
:10135000E16A914200D81146A26911442269891AB2
:10136000814200DD08460544002D01DA0220EAE74B
:10137000E16A6068E268814206D29103E06203D5C7
:1013800022F4003141F01002A6690027AE4213DCBE
:10139000E16A814201D90B4600E0034603EB060CEB
:1013A0002369ACEB030CAC4506DD814201D98C46C8
:1013B00000E084469C4505D1A760276042F02000EC
:1013C000A5620DE0AD1BE669AE1B8142A66000D9A7
:1013D0000846C01A281A20605819606022F02000C0
:1013E00003490840E060002084F84870ABE7000043
:1013F000BFCFD7FF002801D000F01CB87047000015
:1014000010B5014602A000F056F8012010BD000002
:1014100053494752545245443A20526564697265B3
:1014200063743A2063616E2774206F70656E3A2092
:101430000000000001491820ABBEFEE726000200B4
:10144000034640688C46002818BF88423CBF0346CC
:101450004068F8D318681844884207D00CF103009C
:1014600020F00700001D411A521A0146081D0A60AB
:10147000FFF740BD10B50146C268900703D0900643
:1014800007D5886A0AE000F03DF801210160881E56
:1014900010BD8B69486818440B69C01A91F8483030
:1014A0001BB191F84910401A10BD1103FCD500285A
:1014B000FADD401E10BD70B505460C460A2000E05E
:1014C0006D1C00F018F835B128780028F8D102E03A
:1014D000641C00F010F814B120780028F8D1BDE8A1
:1014E00070400A2000F007B810B500F00FF8BDE812
:1014F0001040FFF77FBF08B569468DF80000032054
:10150000ABBE08BD004870471401002010B501288B
:1015100005D0002103A0FFF7CEFF012010BD09A1D7
:10152000F8E7000053494752544D454D3A204F7556
:1015300074206F662068656170206D656D6F7279CB
:10154000000000003A2048656170206D656D6F7283
:101550007920636F7272757074656400FEE7000035
:1015600070470000EFF3108072B600BFFEE7000086
:10157000002804BF0120704710B50446407918B117
:1015800001206071002010BD00202071204600F075
:1015900005F801206071002010BD000081B00068D6
:1015A00043F20001C4F20201884201D001B0704749
:1015B00041F21400C4F20200016841F040010160F0
:1015C000006800F040000090009801B070470000F3
:1015D000014690F82100022816D10868D1E90FC30E
:1015E000026822F00E020260026822F0010202602C
:1015F000012000FA03F2CCF8042081F82100002039
:10160000002281F8202070470420886301200022F6
:1016100081F820207047000080B590F82110022941
:1016200024D10268116821F00E0111602F21136886
:10163000C4F202018A4240F20401C4F2020123F022
:101640000103136016DD3023C4F202039A421DD059
:101650004423C4F202039A421CD05823C4F202036A
:101660009A421DD14FF4803322E000BF04218163F0
:10167000012080BD0823C4F202039A420ED01C232D
:10168000C4F202039A420BD1102311E04FF480738D
:101690000EE000BF4FF480530AE000BF012307E0D3
:1016A00001F1680C4FF08073624508BF4FF480135E
:1016B0000B60012180F82110426B002180F820107E
:1016C0000AB190470021084680BD00002DE9F04F87
:1016D00082B041F20042C4F201020E68042390423B
:1016E00008BF0323002E009300F0F68040F2004C68
:1016F0004FF6FF7E0022C4F2010C0124C1F2100E4D
:101700004FF0000A4FF0000947E000BF012502F04A
:101710000C040F27A7402BEA070705FA04F43C4303
:1017200043F82640D1F804B040F20C455FEACB23E1
:10173000DCF8083054BF23EA080343EA0803C4F284
:101740000105CCF808302B685FEA8B2454BF23EAEC
:10175000080343EA08032B605FEA8B34DCF80430AB
:1017600054BF23EA080343EA08035FEACB34CCF80A
:101770000430DCF800304FF0010454BF23EA0803C2
:1017800043EA0803CCF800300E680AF1010A36FA81
:101790000AF302F1040200F09F8004FA0AF816EA44
:1017A000080FF1D04B68734512DC122B56D8DFE8D6
:1017B00003F0350B45495555555555555555555516
:1017C0005555554D510000BFD1F80C9046E000BF73
:1017D0004FF6FF75C1F22105AB420FDC0025C1F2C7
:1017E0001105AB421AD00025C1F21205AB4215D04B
:1017F0000025C1F22105AB4210D02FE00025C1F237
:101800002205AB420AD00025C1F23105AB4205D01A
:101810000025C1F23205AB4220D100BF8B684BB12D
:10182000012B14BFC0F81480C0F810804FF00809D5
:1018300014E000BF4FF0040910E000BFCB6803F1D3
:1018400008090BE04FF0000908E000BFCB6803F186
:10185000040903E0CB6803F10C0900BF13460546F9
:10186000BAF1080F24BF203B04352E680F279F4094
:10187000BE4309FA03F333432B60CB79DB067FF5D4
:1018800083AF41F21804C4F2020423684FEA9A06B7
:1018900043F001032360236840F6000403F00103D2
:1018A0000193019BACF57E7353F826B0C4F201049A
:1018B000A0420FD040F60044C4F20104A0423FF41D
:1018C00025AF41F20004C4F20104009DA04208BF0C
:1018D00002251CE700251AE702B0BDE8F08F0000E2
:1018E000002A08BF090401617047000040F254203B
:1018F000C2F200000068704740F20C0040F2542130
:10190000C2F20000C2F2000100780A6810440860C8
:101910007047000080B542F20000C4F20200016886
:1019200041F010010160032000F08AF80F2000F060
:1019300005F800F027F8002080BD000070B540F2E7
:101940000C06C2F2000640F214013278C2F2000125
:101950004FF47A730968B3FBF2F20446B1FBF2F17B
:10196000084600F05FFB0F2C4FF0010508D838B98E
:101970004FF0FF3021460022002500F035F874605A
:10198000284670BD82B041F21800C4F2020001681E
:10199000022241F001010160016801F001010191A1
:1019A0000199416841F080514160406800F08050E9
:1019B000009000980420C4F20100016862F31A61EB
:1019C000016002B070470000002848BF704700F077
:1019D0001F01012202FA01F14EF200124009CEF27B
:1019E000000242F82010704710B54EF60C5CCEF2A3
:1019F000000CDCF80030C3F3022E8EF00704042C38
:101A000028BF0424BEF103034FF0FF3E0EFA04F496
:101A100038BF0023A14399400EFA03F39A431143C0
:101A200000F00F02043A624409010C3200F16043F5
:101A3000B0F1FF3FC8BF03F56442117010BD000054
:101A40004EF60C51CEF200010A684FF6FF031A4021
:101A500060F30A2242F0806040F0FD700860704739
:101A60002DE9F04381B0002800F0858042F20008A3
:101A7000C4F202080446D8F800000D4600F0070042
:101A800088420CD2D8F8000020F007002843C8F89C
:101A90000000D8F8000000F00700A8426BD12068D1
:101AA00041F204098107C4F2020917D5410705D59F
:101AB000D9F8001041F4E061C9F80010010705D51C
:101AC000D9F8001041F46051C9F80010D9F800109D
:101AD000A26821F0F0011143C9F80010C00741D1FC
:101AE000D8F8000000F00700A8420CD9D8F8000090
:101AF00020F007002843C8F80000D8F8000000F0E4
:101B00000700A84237D12068410707D5D9F800104F
:101B1000E26821F4E0611143C9F80010000708D51C
:101B2000D9F80000216920F4605040EAC100C9F8EA
:101B30000000D9F8002002F00C00082841F2002033
:101B4000C0F27A0050D143F6DA53C2F38341C0F6B3
:101B50000003595CD2033BD440F60010C0F23D00B4
:101B6000484341E0606802280AD001282AD159F888
:101B7000041C890308D4012001B0BDE8F08300BF34
:101B800059F8041C8901F6D5D9F8001021F0030199
:101B90000843C9F80000FFF7A9FE064641F288375E
:101BA000D9F80000616800F00C00B0EB810F97D00D
:101BB000FFF79CFE801BB842F2D9032001B0BDE8BC
:101BC000F08300BF59F8041C8907D4D5DCE700BFB7
:101BD000D9F8002043F6D853C2F34042C0F60003C0
:101BE0009A5C4843B0FBF2F0D9F8001043F6C052BB
:101BF000C1F30311C0F60002515C40F2140220FA56
:101C000001F140F21000C2F200000068C2F20002CE
:101C10001160FFF793FE002001B0BDE8F0830000E3
:101C200040F2140041F20401C2F20000C4F20201C9
:101C30000068096843F6D052C1F30221C0F60002E1
:101C4000515CC8407047000040F2140041F20401AA
:101C5000C2F20000C4F202010068096843F6D052E3
:101C6000C1F3C221C0F60002515CC84070470000B9
:101C70002DE9F04182B0002868D00446007841F296
:101C80000006C007C4F2020625D0706800F00C0000
:101C900004281BD0706800F00C00082802D170687E
:101CA000C00313D46068002800F06881B0F5A02F4D
:101CB00000F07C81B0F5803F00F07C81306820F43A
:101CC00080303060306820F4802076E13068800316
:101CD00001D56068D0B32078800718D5706810F0FF
:101CE0000C0F07D0706800F00C0008286ED17068E7
:101CF000C0036BD43068800702D52069012825D144
:101D00003068616920F0F80040EAC1003060207856
:101D100000071FD42078400732D4E56995B1706878
:101D200000F00C00082840F08F80012D0ED0706864
:101D3000216A00F480328A4208D1616A00F470108E
:101D4000884203D1002002B0BDE8F081012002B03A
:101D5000BDE8F081A069002862D00020C4F24220D2
:101D60000121C0F88014FFF7C1FD0546706A8007A5
:101D700000F18C80FFF7BAFD401B0228F6D92AE15A
:101D8000F06910F0805808D1F06940F08050F0619F
:101D9000F06900F080500090009847F20007C4F20C
:101DA00000073868C00529D4386840F4807038606E
:101DB000FFF79CFD054600BF3868C0051ED4FFF73D
:101DC00095FD401B6428F7D905E100BF2069002874
:101DD00040F20000C4F2422000F082800121016044
:101DE000FFF784FD054600BF306880073FF588AFE8
:101DF000FFF77CFD401B0228F6D9ECE0E0680028E4
:101E000000F08080052800F09780012800F098807D
:101E1000306A20F001003062306A20F0040092E065
:101E20000020C4F242200021C0F88014FFF75EFDBC
:101E3000054600BF706A80077FF56CAFFFF756FD5F
:101E4000401B0228F6D9C6E00027C4F24227002032
:101E50003866FFF74BFD022D05460BD13068800137
:101E600040F1BE80FFF742FD401B02284FF0030007
:101E7000F4D968E7306880017FF564AFFFF736FD7D
:101E8000401B02284FF00300F4D95CE740F2140035
:101E9000C2F20000006844F6D351C1F26201A0FB17
:101EA0000101480A019000BF00BF0198411E0028AF
:101EB00001913FF42FAF00BF0198411E002801910E
:101EC0003FF428AF00BF0198411E002801913FF464
:101ED00021AF00BF0198411E00280191E4D119E70C
:101EE00000210160FFF702FD054600BF3068800752
:101EF0007FF50DAFFFF7FAFC401B02284FF00300FF
:101F0000F4D920E7306A20F001003062306A20F016
:101F100004003062FFF7EAFC054641F2883700BF53
:101F2000306A800720D5FFF7E1FC401BB8424FF034
:101F30000300F5D907E700BF306A40F004003062C3
:101F4000306A40F001003062FFF7D0FC054641F2F4
:101F5000883700BF306A800706D4FFF7C7FC401BF4
:101F6000B842F7D937E000BFB8F1000F7FF4D5AE23
:101F7000F06920F08050F061CFE600BF306820F4B7
:101F800080303060306820F480203060FFF7AEFC95
:101F9000054600BF306880037FF59DAEFFF7A6FCC5
:101FA000401B64284FF00300F4D9CCE6306840F4BD
:101FB00080203060306840F480303060FFF796FC5D
:101FC000054600BF306880033FF585AEFFF78EFC05
:101FD000401B6428F6D9032002B0BDE8F08100BFA1
:101FE000206AB0F5803F05D17168A26821F4003104
:101FF000114371607168626A21F4741110430843DF
:10200000706001203866FFF771FC0446306880017B
:102010003FF598AEFFF76AFC001B02284FF0030063
:10202000F4D990E6411E0020B0EB116F1CBF0120D7
:1020300070474EF21002CEF2000251604EF623516C
:10204000CEF20001F0230B70072190601160704701
:102050007047000070470000B0B582B004460068C9
:102060000168C368426901F02F05202D03F02005A7
:1020700006D12DB1204602B0BDE8B04001F00AB84B
:102080005FEA017C1EBF02F0010E03F4907212EBB6
:102090000E0255D1226B012A05D111F0100218BF92
:1020A00013F0100236D10A0622D513F080021FD099
:1020B00094F84110212941D1A168B1F5805F03D185
:1020C0002169002900F07282216A4A1C2262097883
:1020D0004160E18C01390A04E1842FD1C16821F00B
:1020E0008001C160C16841F04001C16002B0B0BD73
:1020F000490623D513F0400120D0C16821F04001EA
:10210000C1602021204684F8411002B0BDE8B040F3
:1021100000F034BD002101910168019141680191F5
:1021200001994169490600F18F80A18DE28DE38D0F
:10213000002B1CBF891A5FEA01420CD102B0B0BD6E
:10214000CA0718BF13F4807240F038814A0700F1C3
:102150003B8140E1206850E8030F226820F4907032
:1021600042E80303DBB1206850E8030F226820F443
:10217000907042E8030393B1206850E8030F22688F
:1021800020F4907042E803034BB1206850E8030F3D
:10219000226820F4907042E80303002BDAD1206813
:1021A00050E8050F226820F0010042E80503DBB18A
:1021B000206850E8050F226820F0010042E805037E
:1021C00093B1206850E8050F226820F0010042E832
:1021D00005034BB1206850E8050F226820F001008C
:1021E00042E80503002BDAD1202084F842000020C9
:1021F0002063206850E8030F226820F0100042E8B6
:102200000303DBB1206850E8030F226820F01000C0
:1022100042E8030393B1206850E8030F226820F0DE
:10222000100042E803034BB1206850E8030F226816
:1022300020F0100042E80303002BDAD1022289B219
:1022400020466263B4E000BFE16B0A68526893B253
:10225000002B3FF473AFA58DAB42BFF46FAFE285A7
:102260008969202900F09D8050E8030F216820F43F
:10227000807041E80302EAB1206850E8030F21684A
:1022800020F4807041E80302A2B1206850E8030FF7
:10229000216820F4807041E803025AB1206850E8B8
:1022A000030F216820F4807041E8030212B1206816
:1022B000DAE700BF206850E8050F216820F0010030
:1022C00041E80502DAB1206850E8050F216820F0E6
:1022D000010041E8050292B1206850E8050F21682D
:1022E00020F0010041E805024AB1206850E8050FDE
:1022F000216820F0010041E80502002ADAD12068B7
:1023000050E8050F216820F0400041E80502DAB1ED
:10231000206850E8050F216820F0400041E80502E0
:1023200092B1206850E8050F216820F0400041E894
:1023300005024AB1206850E8050F216820F04000EE
:1023400041E80502002ADAD1202084F8420000206A
:102350002063206850E8030F216820F0100041E856
:102360000302DAB1206850E8030F216820F0100062
:1023700041E8030292B1206850E8030F216820F081
:10238000100041E803024AB1206850E8030F2168B9
:1023900020F0100041E80302002ADAD1E06BFFF7D9
:1023A00017F902206063A08DE18D401A81B22046AA
:1023B00002B0BDE8B040FFF74BBE00BF626C42F018
:1023C000010262644A0706D5BEF1000F03D0626CB9
:1023D00042F0020262648A0706D5BEF1000F03D004
:1023E000626C42F004026264BCF1000F06D555EA4B
:1023F0000E0203D0626C42F008026264626C002A32
:102400003FF49CAE11F0200118BF002D03D02046F0
:1024100000F040FE20684169626C01F0400102F06A
:102420000802891800F0A28050E8030F216820F408
:10243000907041E80302C2B3206850E8030F21689E
:1024400020F4907041E803027AB3206850E8030F4B
:10245000216820F4907041E8030232B3206850E80C
:10246000030F216820F4907041E80302EAB120686C
:10247000DAE700BF206850E8050F216820F001006E
:1024800041E80502DAB1206850E8050F216820F024
:10249000010041E8050292B1206850E8050F21686B
:1024A00020F0010041E805024AB1206850E8050F1C
:1024B000216820F0010041E80502002ADAD1206BF2
:1024C000012824D1206850E8030F216820F0100073
:1024D00041E80302DAB1206850E8030F216820F0D8
:1024E000100041E8030292B1206850E8030F216810
:1024F00020F0100041E803024AB1206850E8030FC1
:10250000216820F0100041E80302002ADAD12020DF
:1025100084F84200002020632068416949063FD5C5
:1025200050E8050F216820F0400041E805022AB379
:10253000206850E8050F216820F0400041E80502BE
:10254000E2B1206850E8050F216820F0400041E822
:1025500005029AB1206850E8050F216820F040007C
:1025600041E8050252B12068DAE700BF2046FFF7D4
:1025700071FD0020606402B0B0BD00BFE06B78B1B7
:1025800043F28901C0F600014163FFF745F80028D6
:102590003FF4D4ADE06B416B02B0BDE8B0400847FA
:1025A000204602B0BDE8B040FFF754BD216A31F8C3
:1025B000022B6FF35F22426021628AE5002804BF8C
:1025C0000120704710B5044690F8410028B900205A
:1025D00084F84000204600F061F8242084F841008F
:1025E0002068D4E90212C36823F40053C36003696E
:1025F00023F440531A430261D4E904231143C2680F
:10260000194341F20C639A431143C1604169A269C5
:1026100021F44071114343F60002C4F201029042DA
:10262000416103D0FFF7FCFA02E000BFFFF70CFBAB
:102630006268192148439100B0FBF1F048F21F5144
:10264000C5F2EB11A0FB01235A096FF0630302FBF3
:102650000300322303EB0010A0FB0101F02303EA87
:102660005113206803EB0212C1F34311114481603E
:10267000016921F490410161416921F02A01416120
:10268000C16841F40051C16000202021606484F8D9
:10269000411084F84210606310BD0000B0B586B0F0
:1026A000006844F20041C4F2000188424FF000018A
:1026B000CDE90411CDE9021136D044F60001C4F28F
:1026C0000001884258D043F60001C4F2010188425B
:1026D00040F08C8041F21800C4F20200016840F61C
:1026E000000441F4804101600168C4F2010401F476
:1026F000804101910199016841F004010160006885
:1027000002A900F00400019001984FF400700290BB
:1027100002200390032005902046FEF7D7FF4FF4D8
:1027200080600290252552E041F21800C4F20200B8
:10273000416840F6000441F4003141604168C4F250
:10274000010401F4003101910199016841F0040193
:102750000160006802A900F00400019001980420C3
:10276000029002200390032005902046FEF7AEFF62
:102770000820029026252AE041F21800C4F2020047
:10278000416841F480214160416801F48021019158
:102790000199016841F008010160006802A900F098
:1027A0000800019001984FF480600290022003908D
:1027B0000320059040F60000C4F2010000F580649B
:1027C0002046FEF783FF4FF400602725029000208B
:1027D000CDE9030002A92046FEF778FF2846002134
:1027E0000022FFF701F92846FFF7EEF806B0B0BD6A
:1027F0002DE9F04381B0044690F84200202829D109
:102800000E4600294FF0010000F0FA801746002A1A
:1028100000F0F6804FF0000822201D46C4F84480E6
:1028200084F84200C4F83080FFF760F8A785E78598
:10283000A1680746B1F5805F05D12069002814BF63
:102840003046B0460646E08D00284FD005F101091C
:1028500010E000BF022001B0BDE8F0834068002610
:102860006FF35F2028F8020BE08D0138E085E08DE2
:1028700000283BD020680168890617D4B9F1000F01
:1028800022D0002D00F0C080FFF730F8C01BA84216
:1028900000F2B2802068C168490744BF01685FEA5E
:1028A000017125D401688906EED500BF002ED5D070
:1028B000A168B1F5805F15D009B9216991B140686F
:1028C00000F07F000FE000BF01688906EED40168C8
:1028D00089065CBF01685FEA8161E7D40168890607
:1028E000F2D5E3E7406806F8010BBDE7002084E07D
:1028F000002100910168009141680091009900BF9A
:1029000050E8030F216820F4907041E80302C2B33D
:10291000206850E8030F216820F4907041E803021A
:102920007AB3206850E8030F216820F4907041E8E2
:10293000030232B3206850E8030F216820F490703E
:1029400041E80302EAB12068DAE700BF206850E8F6
:10295000050F216820F0010041E80502DAB1206886
:1029600050E8050F216820F0010041E8050292B10E
:10297000206850E8050F216820F0010041E80502B9
:102980004AB1206850E8050F216820F0010041E8B5
:102990000502002ADAD1206B012824D1206850E8F2
:1029A000030F216820F0100041E80302DAB120682B
:1029B00050E8030F216820F0100041E8030292B1B3
:1029C000206850E8030F216820F0100041E803025E
:1029D0004AB1206850E8030F216820F0100041E858
:1029E0000302002ADAD1202084F8420000200821C6
:1029F0002063616484F840000320202184F84210A1
:102A000001B0BDE8F08300BFFEF770FFF4E70000FF
:102A1000704700002DE9F041044690F8410020285D
:102A20001CBF0220BDE8F0810F4600294FF00100D5
:102A300000F082801646002A08BFBDE8F0814FF002
:102A4000000821201D46C4F8448084F84100FEF7A8
:102A50004DFFA684E684A1680646B1F5805F05D1E6
:102A60002069002814BF3846B8460746E08CC8B134
:102A7000681C19D0002D61D1216807E017F8010BFF
:102A80004860E08C0138E084E08C68B30868000698
:102A90004CD5002FF2D138F8020B00276FF35F20DE
:102AA000EEE700BF21681FE0216802E00868000629
:102AB00009D40868000606D4086800065CBF0868E8
:102AC0005FEA0060F2D51FB117F8010B05E000BF07
:102AD00038F8020B00276FF35F204860E08C013864
:102AE000E084E08C0028E4D1086840061CD4EDB1F5
:102AF000681C0FD10868400616D40868400613D435
:102B00000868400610D4086840064FF00000F1D570
:102B10000FE000BFFEF7EAFE801BA84208D820683D
:102B2000C16800684006F5D5002002E0FEF7DEFE31
:102B30000320202184F84110BDE8F081216800BF06
:102B40000868000608D4FEF7D1FE801BA842EFD823
:102B50002168C868F4E700BF17B117F8010B04E05B
:102B600038F8020B00276FF35F204860E08C0138D3
:102B7000E084E08C0028E3D1B6E700007047000055
:102B8000FEE7000080B540F2741043F20001C2F28B
:102B90000000C4F202010160FEF7EAFC002808BF51
:102BA00080BDBDE88040FEF7DDBC000070B584B09C
:102BB00041F21800C4F20200016841F2000441F041
:102BC000100101600168C4F2010401F010010091DC
:102BD00000990168002241F02001016001684FF472
:102BE000005501F02001009100990168002641F094
:102BF00004010160016801F004010091009901687D
:102C000041F00801016000684FF4005100F0080035
:102C1000009000982046FEF763FE0120CDE90106F2
:102C200002200390694620460095FEF74FFD04B050
:102C300070BD000080B540F27C1043F60001C2F286
:102C40000000C4F2010100234FF00C0C4FF4E132FC
:102C500080E80E00C0E90333C0E905C3C361FFF794
:102C6000ADFC002808BF80BDBDE88040FEF77ABCFF
:102C700080B540F2C41044F20041C2F20000C4F238
:102C8000000100234FF00C0C4FF4E13280E80E00FD
:102C9000C0E90333C0E905C3C361FFF78FFC002817
:102CA00008BF80BDBDE88040FEF75CBC80B540F247
:102CB0000C2044F60001C2F20000C4F2000100231F
:102CC0004FF00C0C4FF4E13280E80E00C0E9033302
:102CD000C0E905C3C361FFF771FC002808BF80BDD0
:102CE000BDE88040FEF73EBCFEE7000010B582B0B4
:102CF00040F20133ADF800300B0A4AF2010C8DF8B6
:102D00000230130ACFF6FF7C8DF804300CF5855E97
:102D1000CB058DF803108DF8052058BF4FF4855E64
:102D20008EEA51231FFA83FE8CEA5E04DB0708BF9C
:102D30004FEA5E0447F63F4303EA5403E40718BF33
:102D400083EA0C03C3F34E04DB0718BF84EA0C04C8
:102D5000C4F34E03E40718BF83EA0C03C3F34E0425
:102D6000DB0718BF84EA0C04C4F34E03E40718BF62
:102D700083EA0C03C3F34E04C9B2DB0718BF84EA2D
:102D80000C0461408BB28CEA5304C90708BF5C088D
:102D9000C4F34E01E30718BF81EA0C01C1F34E03EF
:102DA000C90718BF83EA0C03C3F34E01DB0718BF42
:102DB00081EA0C01C1F34E03C90718BF83EA0C0373
:102DC000C3F34E01DB0718BF81EA0C01C1F34E03C8
:102DD000C90718BF83EA0C03C3F34E01DB0718BF12
:102DE00081EA0C0181EA12218BB28CEA5304C907F3
:102DF00008BF5C08C4F34E01E30718BF81EA0C0169
:102E0000C1F34E03C90718BF83EA0C03C3F34E0195
:102E1000DB0718BF81EA0C01C1F34E03C90718BFD5
:102E200083EA0C03C3F34E01DB0718BF81EA0C01F0
:102E3000C1F34E03C90718BF83EA0C03C3F34E0165
:102E4000DB0718BF81EA0C01D2B251408AB28CEA8A
:102E50005203C90708BF5308C3F34E01DA0718BF6E
:102E600081EA0C01C1F34E02C90718BF82EA0C02C5
:102E7000C2F34E01D20718BF81EA0C01C1F34E0222
:102E8000C90718BF82EA0C02C2F34E01D20718BF6D
:102E900081EA0C01C1F34E02C90718BF82EA0C0295
:102EA000C2F34E01D20718BF81EA0C01ADF806103B
:102EB000694608224FF0FF33FFF7ACFD02B010BDAA
:102EC0002DE9F04188B00DF1150421460B224FF099
:102ED000FF334AF20105FFF78BFC9DF81D109DF8AA
:102EE0001EC04FF6FF776FF0010200BFA3189E7857
:102EF000DB78774085EA5706F80708BF7E0885EA41
:102F00005600F70708BF700885EA5007C60708BFD4
:102F1000470885EA5700FE0708BF780885EA50078A
:102F2000C60708BF470885EA5700FE0708BF7808AC
:102F300085EA5007C60708BF470885EA5700FE071D
:102F400008BF7808584085EA5003C70708BF430800
:102F500085EA5300DF0708BF580885EA5003C70712
:102F600008BF430885EA5300DF0708BF580885EA11
:102F70005003C70708BF430885EA5300DF0708BFAF
:102F8000580885EA5003C70708BF430885EA530776
:102F9000D80702F1020208BF5F08062AA6D141EA5B
:102FA0000C20B8423CD1BDF81800BDF81A2000042E
:102FB0009DF81C3000BA120414BA41EA032500F04F
:102FC00041FE0026C4F22016314600F079FD074686
:102FD000204600F037FE314600F072FD04462846D8
:102FE00000F030FE314600F06BFD0546384600F03B
:102FF0003BFD804620460F4600F036FD044628463D
:103000000E4600F031FD02900BA042463B46CDE952
:1030100000460391FDF7ECF808B0BDE8F08100BF71
:1030200002A0FDF7B5F908B0BDE8F0814352432096
:103030004572726F72210000434F443A20252E31B1
:1030400066206D672F4C2C2054656D70657261741D
:103050007572653A20252E316620432C20547572F6
:103060006269646974793A20252E3166204E545580
:103070000A000000FEE700007047000070470000F3
:10308000FEF73ABC70470000406A0021C185C18448
:10309000FEF7E0BF81B090F84210222920D183686A
:1030A000B3F5805F08D10169002965D000F12801DE
:1030B0000A6803685B680AE0014651F8282F13B9D3
:1030C0000369002BF5D003685B6803F07F0313707E
:1030D0000A6801320A60C18D01390A04C18501D034
:1030E00001B070470168CA6822F02002CA60CA684D
:1030F00022F48072CA604A6922F001024A612022E9
:1031000080F8422000224263036B012B3ED1026310
:1031100051E8031F026821F0100142E8031301681F
:10312000DBB151E8031F026821F0100142E80313EC
:10313000016893B151E8031F026821F0100142E8D1
:10314000031301684BB151E8031F026821F010011D
:1031500042E803130168002BDAD10A68D20606D5CB
:10316000002200920A680092496800910099818DBE
:1031700001B0FEF76DBF00BF0168826A49686FF356
:103180005F2122F8021B8262A5E700BF01B0FFF7B2
:103190003FBC000040F27C10C2F20000FEF75CBFB2
:1031A00040F2C410C2F20000FEF756BF40F20C20FD
:1031B000C2F20000FEF750BFFEE7000090B0FEF73D
:1031C000A9FB00240120CDE90B44CDE90944069078
:1031D0000A904FF4E0104FF4803102250F9006A8BA
:1031E000CDE90714CDE90D51FEF742FD20B1EFF313
:1031F000108072B6FEE700BF0F20CDE901054FF445
:103200008060CDE9040401A802210394FEF728FCA4
:1032100020B1EFF3108072B6FEE700BFFFF7C6FCE7
:10322000FFF708FDFFF724FDFFF740FDFFF7AAFCBD
:1032300040F20C24C2F20004204600210322FFF7D2
:1032400055FD2046FFF73CFEF6E75FEA400C08BF5D
:1032500091F0000F4FEA8C234FEAC12243EA51510B
:103260004FEA1C5018BF00F5F0404FEA300018BF7D
:1032700041F000415FEA6C5C00F02980BCF1FF3F47
:1032800008BF40F080407047130C06BF12044FF097
:10329000100C4FF0000C130E04BF12020CF1080CBE
:1032A000130F04BF12010CF1040C930F04BF920022
:1032B0000CF1020CD30F04BF52000CF1010C1146AB
:1032C0004FF00002A0F11F00A0EB0C00704711F0BE
:1032D000004F08BF704731F000413FF4D5AF0B0CF1
:1032E00006BF09044FF0100C4FF0000C0B0E04BF8A
:1032F00009020CF1080C0B0F04BF09010CF1040CBE
:103300008B0F04BF89000CF1020CCB0F04BF4900E6
:103310000CF1010CCCF1200322FA03F341EA030182
:1033200002FA0CF2A0EB0C0000F101007047000063
:1033300023F07F4720F07F4C80EA030000F000403C
:10334000ACEB070303F57C5303F1FF032DE9804940
:1033500009B44FEA144324EA03484FEA154B25EA1F
:103360000B4E0FF2042606EB13273E7803FB06678D
:10337000C7F5000707FB06F64FEAD64606F1020638
:103380004FEA543707FB066CCCF1005C4FEA1C4750
:103390002CEA074C0CFB06F507FB06F404EB15467C
:1033A0004FEA961649085FEA320234BF00204FF018
:1033B00000404FEAD13706FB07FC4FEA1C4C0CFBE0
:1033C0000BF7D21B03FB0CF761EB07010CFB0EF7AD
:1033D000B0EB074072EB17420CFB08F734BFA2EBCF
:1033E0000742B2EB074261EB17414FEA0C444FEA48
:1033F000910706FB07FC4FEA1C4C0CFB0BF7B0EBEC
:10340000C74072EB573203FB0CF734BFA2EBC74245
:10341000B2EBC74261EB57310CFB0EF7B0EBC700C4
:1034200072EB57720CFB08F734BFA2EBC702B2EB8A
:10343000C70261EB57714FEA816141EA92114FEA8D
:10344000826242EA90124FEA806004EBCC04039F50
:103450004FEAD13706FB07FC4FEA1C4C0CFB0BF77D
:10346000D21B03FB0CF761EB07010CFB0EF7B0EB73
:10347000074072EB17420CFB08F734BFA2EB074280
:10348000B2EB074261EB17414FEA8C5504EB9C24E9
:103490004FEA910706FB07FC4FEA1C4C0CFB0BF7AD
:1034A000B0EBC74072EB573203FB0CF734BFA2EB13
:1034B000C742B2EBC74261EB57310CFB0EF7B0EBE2
:1034C000C70072EB57720CFB08F734BFA2EBC702C0
:1034D000B2EBC70261EB57714FEA816141EA921189
:1034E0004FEA826242EA90124FEA806015EB4C2567
:1034F00044F100044FEAD13706FB07FC4FEA1C4CAD
:103500000CFB0BF7D21B03FB0CF761EB07010CFB69
:103510000EF7B0EB074072EB17420CFB08F734BF15
:10352000A2EB0742B2EB074261EB17414FEA813150
:1035300041EA92414FEA823242EA90424FEA8030B9
:103540004FEA0C7615EB1C1544F1000448EA0343DE
:103550004EEA0B484FF0000EB2EB080C71EB03077C
:1035600024BF624639464EEB0E0E4FF0000B00189A
:10357000524149414BEB0B0BB2EB080C71EB0307CB
:103580007BF1000B24BF624639464EEB0E0E4FF026
:10359000000B0018524149414BEB0B0BB2EB080CEE
:1035A00071EB03077BF1000B24BF624639464EEBFB
:1035B0000E0E51EA020718BF46F0010616EB0E7612
:1035C00055F1000254F1000103D5BDE88901BDE8C1
:1035D0000088BDE88901BDE80048B619524141EBB9
:1035E0000101A3F10103704780807F7E7D7C7B7A9F
:1035F0007978777676757473727171706F6E6E6D9F
:103600006C6C6B6A6A696868676666656464636344
:1036100062616160605F5F5E5E5D5D5C5C5B5B5ACA
:103620005A59595858575756565555555454535337
:1036300052525251515050504F4F4F4E4E4D4D4D92
:103640004C4C4C4B4B4B4A4A4A49494948484847DD
:10365000474747464646454545444444444343431B
:1036600043424242424141419C46002B30D47700C4
:103670002BD04FEA37071CB503B44FF010004FF0C2
:103680001001BAF1000F06D0BCF1000FDCBF40F012
:10369000080040F008014FF000000FBCBDE81040EA
:1036A0000BF1010BBBF1010F08BF5FEA170722BF47
:1036B00012F1010211F101014FF0004143F1000349
:1036C00000F0004043EA00007047F9D35708D0E704
:1036D00046EA06464FEA164613F1400F1FDD13F186
:1036E000200FDFBF16430A46002120335B42BED0C5
:1036F000C3F1200746EA06464FEA164602FA07F7E4
:1037000046EA070622FA03F2C3F1200701FA07F797
:1037100042EA070221FA03F14FF00003A7E746EA65
:10372000020646EA06464FEA164646EA0106BCBFCE
:1037300046EA0646360C4FF000034FF000024FF009
:10374000000194E72DE9804C70B49A46934691E8C5
:10375000380007C831EA400C48BF34EA430C03D5AF
:10376000FFF7E6FDFFF780FFF0BCBDE8008C2DE918
:10377000804C70B49A46934691E8380007C810F020
:10378000804F08BF13F0804F03D100F005F8FFF71A
:103790006BFFF0BCBDE8008C20F07F4723F07F4C2E
:1037A00080EA030000F0004007EB0C03A3F57C5314
:1037B000A3F1FE0392F0000F00F0B38095F0000F2C
:1037C00000F077802DE901494FEA114021EA0048D5
:1037D0004FEA144624EA064700FB06FC08FB06F6FF
:1037E00007FB08F818EB06484CEB164C00FB07F7F4
:1037F00018EB07484CEB17404FEA124B22EA0B4EEE
:103800004FEA154625EA06470BFB06FC0EFB06F6BB
:1038100007FB0EFE1EEB064E4CEB164C0BFB07F7A0
:103820001EEB074E4CEB174B18EB0B0840F100005A
:1038300018EB0E0B58EB000840F100008F1A4FF008
:1038400000014FF000063CBFC943661B14BFB5EB37
:10385000040C00213CBFC943F61B4FEA174427EA7A
:1038600004454FEA1C472CEA074C04FB076205FBA2
:1038700007F70CFB05F616EB074642EB174204FB75
:103880000CFC16EB0C4642EB1C421BEB060658EBFD
:10389000020241414EEA8E0E46EA9E0601D5BDE87F
:1038A0000189B619524141EB0101A3F10103BDE8C1
:1038B00001894FEA144524EA05464FEA114721EAF7
:1038C000074C05FB07F406FB07F70CFB06F111EBB1
:1038D000074144EB174405FB0CFC11EB0C4144EB96
:1038E0001C444FEA124722EA074C05FB07F206FB8D
:1038F00007F70CFB06F616EB074642EB174205FBF3
:103900000CFC16EB0C4642EB1C456A1854F1000106
:1039100048BF7047B619524141EB0101A3F10103C1
:10392000704795F0000F37D04FEA114221EA024666
:103930004FEA144724EA074C02FB07F106FB07F79E
:103940000CFB06F414EB074441EB174102FB0CFCA3
:1039500014EB0C4441EB1C414FEA154725EA074C98
:1039600002FB07F506FB07F70CFB06F616EB07460E
:1039700045EB174502FB0CFC16EB0C4645EB1C42D5
:10398000121951F1000148BF7047B619524141EB7D
:103990000101A3F1010370474FEA144524EA0546EB
:1039A0004FEA114721EA074C05FB07F106FB07F731
:1039B0000CFB06F212EB074241EB174105FB0CFC36
:1039C00012EB0C4251EB1C414FF0000648BF704710
:1039D000921841EB0101A3F101037047490050EA3D
:1039E000C12018BF04204A0D18BF40F0010040F26A
:1039F000FF72B2EB515F08BF40F00200012808BF20
:103A00000520704730380A2801D201207047002075
:103A100070478A68002A02DC0022FDF751B8521E66
:103A20008A604A68C0B2531C4B6010707047000037
:103A300010B500290AD00878002807D00548784436
:103A4000FDF7C8FB002801D0002010BD02487844D3
:103A500010BD0000CE030000C60300000808A0F55A
:103A600000114FEA3101704743004FEAD30C4FEA8F
:103A70003C0C43401FBF40070CF1605113F0FE4F58
:103A800070471CF0006F03D10CF00041002070471C
:103A90000CF0004343EA507040EACC0010B500F04F
:103AA000E9F800BF000000924FEA0001FFF7D6BF1F
:103AB0004FF00041A1F500214FF0000070470000D9
:103AC0004FF47F0C1CEAD0121EBF1CEAD11392EAFD
:103AD0000C0F93EA0C0F00F0858090EA010F48BFAD
:103AE00042F4807240F4000C41F400002CF07F415D
:103AF00020F07F4000B5A2EB030281420FF2081CC8
:103B0000ACEB504E9EF800E0C0F100004FEA4E0EC4
:103B100000FB0EFC38BF49004FEA2C1C0CFB0EF3D7
:103B20004FEACE1E0EEB635E4FEA112C0EFB0CFC2F
:103B30004FEAC1214FEA1C5300FB031102F5FA02C0
:103B40004FEA112C0EFB0CFC4FEA01314FEADC4C22
:103B500000FB0C1142EB2242C14228BF09184CEB7A
:103B600003335DF804EB10EB410143EBC250B2F5B7
:103B70007C0F38BF704729D512F0F00F1CBF00F141
:103B8000C04000F0004070470081828384858687B2
:103B900088898B8C8D8E8F919293959697999A9C0C
:103BA0009D9FA0A2A3A5A7A8AAACAEB0B2B3B5B77B
:103BB000B9BCBEC0C2C5C7C9CCCED1D4D7D9DCDF51
:103BC000E2E6E9ECF0F3F7FAFE0000004FEA400C01
:103BD0000CF1807CBCF17E4F28BF7047B0F1C04033
:103BE00000F08EB80CEAD11390EA010F48BF42F4FE
:103BF0008072624538BF634507D213F47F0F16D039
:103C000080EA010000F00040704710B500F032F883
:103C1000097EFC3E00F005B880EA010000F000409B
:103C2000704780EA010000F0004000F069B812F42B
:103C30007F0F04BF0248704780EA010000F060B8BF
:103C40000000C07F10F0004148BF4042B0FA80F34E
:103C500010FA03F2C3F19D030BD051EAC35101EBFB
:103C60001220530638BF704700F1010008BF20F052
:103C7000010070470EF1020E2EF0030E5EF8044BA9
:103C8000244204D44FEA4102B2F17F4F11D84FEAE7
:103C90004003B3F17F4F0CD80ED14FEAD07C0CEB30
:103CA0004C0C0CF1020CB2F17F4F08BF4CEBD17CF5
:103CB00004E04FF0080C01E04FEAD17C0CEB4C0320
:103CC00024FA03F404F00704B4F1040C06D20EEB5A
:103CD000840CBDE810404CF0010C6047DFE80CF0AC
:103CE000070802024FF00040A0F5800010BD084612
:103CF000420018BFD2F1807288BF00F0004010BDB2
:103D0000FF2141EAD050C0057047FCF778BC0400A1
:103D10000008000000000000000200010000100088
:103D200002400000000000A000000000054000006C
:103D3000000000C8000000000C4000000000409C93
:103D400000000000194000000020BCBE0000000080
:103D500034400000BFC91B8E00000004B5400000C5
:103D6000504BCFD06607E2CF010000006C4100004D
:103D70003E8251AADFEEA73401000000D9420000C4
:103D8000DCB5A0E23A301F97FFFFFFFFB44500000B
:103D9000FD25A0C8E9A3C14FFFFFFFFFFF3F0000C3
:103DA0000000008000000000FF3F000000000080D5
:103DB000000000003A7474003A7474003A7474009D
:103DC00000000000000000000102030406070809CB
:103DD00000000000010203040102020304050607BB
:103DE00008090A0B0C0D0E0F10100000283E0008E9
:103DF000000000201800000028010008403E0008D4
:103E00001800002040080000440100081C000000C9
:103E100043000000F8FFFFFF0C0000000E00000050
:103E20000F0000002E000000000000000000000055
:103E300000000000010000001000000000127A00E5
:04000005080000ED02
:00000001FF
